{
  "_format": "hh-sol-artifact-1",
  "contractName": "SoulBoundToken",
  "sourceName": "contracts/SoulBoundToken.sol",
  "abi": [
    {
      "inputs": [],
      "stateMutability": "nonpayable",
      "type": "constructor"
    },
    {
      "anonymous": false,
      "inputs": [
        {
          "indexed": true,
          "internalType": "uint256",
          "name": "tokenId",
          "type": "uint256"
        }
      ],
      "name": "Locked",
      "type": "event"
    },
    {
      "anonymous": false,
      "inputs": [
        {
          "indexed": true,
          "internalType": "address",
          "name": "to",
          "type": "address"
        },
        {
          "indexed": true,
          "internalType": "uint256",
          "name": "tokenId",
          "type": "uint256"
        }
      ],
      "name": "Minted",
      "type": "event"
    },
    {
      "anonymous": false,
      "inputs": [
        {
          "indexed": true,
          "internalType": "address",
          "name": "previousOwner",
          "type": "address"
        },
        {
          "indexed": true,
          "internalType": "address",
          "name": "newOwner",
          "type": "address"
        }
      ],
      "name": "OwnershipTransferred",
      "type": "event"
    },
    {
      "anonymous": false,
      "inputs": [
        {
          "indexed": true,
          "internalType": "address",
          "name": "from",
          "type": "address"
        },
        {
          "indexed": true,
          "internalType": "uint256",
          "name": "tokenId",
          "type": "uint256"
        }
      ],
      "name": "Revoked",
      "type": "event"
    },
    {
      "anonymous": false,
      "inputs": [
        {
          "indexed": true,
          "internalType": "uint256",
          "name": "tokenId",
          "type": "uint256"
        }
      ],
      "name": "Unlocked",
      "type": "event"
    },
    {
      "inputs": [
        {
          "internalType": "address",
          "name": "",
          "type": "address"
        },
        {
          "internalType": "uint256",
          "name": "",
          "type": "uint256"
        }
      ],
      "name": "approve",
      "outputs": [],
      "stateMutability": "pure",
      "type": "function"
    },
    {
      "inputs": [
        {
          "internalType": "address",
          "name": "user",
          "type": "address"
        }
      ],
      "name": "balanceOf",
      "outputs": [
        {
          "internalType": "uint256",
          "name": "",
          "type": "uint256"
        }
      ],
      "stateMutability": "view",
      "type": "function"
    },
    {
      "inputs": [
        {
          "internalType": "address[]",
          "name": "recipients",
          "type": "address[]"
        }
      ],
      "name": "batchMint",
      "outputs": [],
      "stateMutability": "nonpayable",
      "type": "function"
    },
    {
      "inputs": [
        {
          "internalType": "address[]",
          "name": "addresses",
          "type": "address[]"
        }
      ],
      "name": "batchRevoke",
      "outputs": [],
      "stateMutability": "nonpayable",
      "type": "function"
    },
    {
      "inputs": [],
      "name": "getAllHolders",
      "outputs": [
        {
          "internalType": "address[]",
          "name": "",
          "type": "address[]"
        }
      ],
      "stateMutability": "view",
      "type": "function"
    },
    {
      "inputs": [],
      "name": "getStats",
      "outputs": [
        {
          "internalType": "uint256",
          "name": "_totalSupply",
          "type": "uint256"
        },
        {
          "internalType": "uint256",
          "name": "_nextTokenId",
          "type": "uint256"
        }
      ],
      "stateMutability": "view",
      "type": "function"
    },
    {
      "inputs": [
        {
          "internalType": "address",
          "name": "",
          "type": "address"
        }
      ],
      "name": "hasSBT",
      "outputs": [
        {
          "internalType": "bool",
          "name": "",
          "type": "bool"
        }
      ],
      "stateMutability": "view",
      "type": "function"
    },
    {
      "inputs": [
        {
          "internalType": "address",
          "name": "user",
          "type": "address"
        }
      ],
      "name": "isKYCVerified",
      "outputs": [
        {
          "internalType": "bool",
          "name": "",
          "type": "bool"
        }
      ],
      "stateMutability": "view",
      "type": "function"
    },
    {
      "inputs": [
        {
          "internalType": "uint256",
          "name": "tokenId",
          "type": "uint256"
        }
      ],
      "name": "locked",
      "outputs": [
        {
          "internalType": "bool",
          "name": "",
          "type": "bool"
        }
      ],
      "stateMutability": "pure",
      "type": "function"
    },
    {
      "inputs": [
        {
          "internalType": "address",
          "name": "to",
          "type": "address"
        }
      ],
      "name": "mint",
      "outputs": [],
      "stateMutability": "nonpayable",
      "type": "function"
    },
    {
      "inputs": [],
      "name": "name",
      "outputs": [
        {
          "internalType": "string",
          "name": "",
          "type": "string"
        }
      ],
      "stateMutability": "view",
      "type": "function"
    },
    {
      "inputs": [],
      "name": "nextTokenId",
      "outputs": [
        {
          "internalType": "uint256",
          "name": "",
          "type": "uint256"
        }
      ],
      "stateMutability": "view",
      "type": "function"
    },
    {
      "inputs": [],
      "name": "owner",
      "outputs": [
        {
          "internalType": "address",
          "name": "",
          "type": "address"
        }
      ],
      "stateMutability": "view",
      "type": "function"
    },
    {
      "inputs": [
        {
          "internalType": "uint256",
          "name": "",
          "type": "uint256"
        }
      ],
      "name": "ownerOf",
      "outputs": [
        {
          "internalType": "address",
          "name": "",
          "type": "address"
        }
      ],
      "stateMutability": "view",
      "type": "function"
    },
    {
      "inputs": [
        {
          "internalType": "address",
          "name": "from",
          "type": "address"
        }
      ],
      "name": "revoke",
      "outputs": [],
      "stateMutability": "nonpayable",
      "type": "function"
    },
    {
      "inputs": [
        {
          "internalType": "address",
          "name": "",
          "type": "address"
        },
        {
          "internalType": "bool",
          "name": "",
          "type": "bool"
        }
      ],
      "name": "setApprovalForAll",
      "outputs": [],
      "stateMutability": "pure",
      "type": "function"
    },
    {
      "inputs": [],
      "name": "symbol",
      "outputs": [
        {
          "internalType": "string",
          "name": "",
          "type": "string"
        }
      ],
      "stateMutability": "view",
      "type": "function"
    },
    {
      "inputs": [
        {
          "internalType": "address",
          "name": "user",
          "type": "address"
        }
      ],
      "name": "tokenIdOf",
      "outputs": [
        {
          "internalType": "uint256",
          "name": "",
          "type": "uint256"
        }
      ],
      "stateMutability": "view",
      "type": "function"
    },
    {
      "inputs": [
        {
          "internalType": "address",
          "name": "",
          "type": "address"
        }
      ],
      "name": "tokenOf",
      "outputs": [
        {
          "internalType": "uint256",
          "name": "",
          "type": "uint256"
        }
      ],
      "stateMutability": "view",
      "type": "function"
    },
    {
      "inputs": [],
      "name": "totalSupply",
      "outputs": [
        {
          "internalType": "uint256",
          "name": "",
          "type": "uint256"
        }
      ],
      "stateMutability": "view",
      "type": "function"
    },
    {
      "inputs": [
        {
          "internalType": "address",
          "name": "",
          "type": "address"
        },
        {
          "internalType": "uint256",
          "name": "",
          "type": "uint256"
        }
      ],
      "name": "transfer",
      "outputs": [],
      "stateMutability": "pure",
      "type": "function"
    },
    {
      "inputs": [
        {
          "internalType": "address",
          "name": "",
          "type": "address"
        },
        {
          "internalType": "address",
          "name": "",
          "type": "address"
        },
        {
          "internalType": "uint256",
          "name": "",
          "type": "uint256"
        }
      ],
      "name": "transferFrom",
      "outputs": [],
      "stateMutability": "pure",
      "type": "function"
    },
    {
      "inputs": [
        {
          "internalType": "address",
          "name": "newOwner",
          "type": "address"
        }
      ],
      "name": "transferOwnership",
      "outputs": [],
      "stateMutability": "nonpayable",
      "type": "function"
    }
  ],
  "bytecode": "0x60c0604052601460809081527f4b594320536f756c20426f756e6420546f6b656e00000000000000000000000060a0526000906200003e90826200013d565b5060408051808201909152600781526612d650cb54d09560ca1b60208201526001906200006c90826200013d565b5060016007553480156200007f57600080fd5b50600280546001600160a01b0319163317905562000209565b634e487b7160e01b600052604160045260246000fd5b600181811c90821680620000c357607f821691505b602082108103620000e457634e487b7160e01b600052602260045260246000fd5b50919050565b601f8211156200013857600081815260208120601f850160051c81016020861015620001135750805b601f850160051c820191505b8181101562000134578281556001016200011f565b5050505b505050565b81516001600160401b0381111562000159576200015962000098565b62000171816200016a8454620000ae565b84620000ea565b602080601f831160018114620001a95760008415620001905750858301515b600019600386901b1c1916600185901b17855562000134565b600085815260208120601f198616915b82811015620001da57888601518255948401946001909101908401620001b9565b5085821015620001f95787850151600019600388901b60f8161c191681555b5050505050600190811b01905550565b61111680620002196000396000f3fe608060405234801561001057600080fd5b506004361061018d5760003560e01c806370a08231116100e3578063a22cb4651161008c578063c59d484711610066578063c59d48471461037a578063d67b06c114610395578063f2fde38b146103a857600080fd5b8063a22cb46514610358578063a9059cbb146101c5578063b45a3c0e1461036657600080fd5b8063773c02d4116100bd578063773c02d4146103145780638da5cb5b1461033d57806395d89b411461035057600080fd5b806370a08231146102e557806374a8f103146102f857806375794a3c1461030b57600080fd5b806323b872dd1161014557806356a9c4541161011f57806356a9c4541461026e5780636352211e146102915780636a627842146102d257600080fd5b806323b872dd1461020457806342ec38e21461021257806354b7636e1461023257600080fd5b8063095ea7b311610176578063095ea7b3146101c557806318160ddd146101d85780631d92f25e146101ef57600080fd5b8063011002df1461019257806306fdde03146101a7575b600080fd5b6101a56101a0366004610e2b565b6103bb565b005b6101af6105d9565b6040516101bc9190610ea0565b60405180910390f35b6101a56101d3366004610f0a565b610667565b6101e160065481565b6040519081526020016101bc565b6101f76106af565b6040516101bc9190610f34565b6101a56101d3366004610f81565b6101e1610220366004610fbd565b60036020526000908152604090205481565b61025e610240366004610fbd565b6001600160a01b031660009081526005602052604090205460ff1690565b60405190151581526020016101bc565b61025e61027c366004610fbd565b60056020526000908152604090205460ff1681565b6102ba61029f366004610fdf565b6004602052600090815260409020546001600160a01b031681565b6040516001600160a01b0390911681526020016101bc565b6101a56102e0366004610fbd565b6106fe565b6101e16102f3366004610fbd565b6108e4565b6101a5610306366004610fbd565b610917565b6101e160075481565b6101e1610322366004610fbd565b6001600160a01b031660009081526003602052604090205490565b6002546102ba906001600160a01b031681565b6101af610a8c565b6101a56101d3366004610ff8565b61025e610374366004610fdf565b50600190565b600654600754604080519283526020830191909152016101bc565b6101a56103a3366004610e2b565b610a99565b6101a56103b6366004610fbd565b610cdb565b6002546001600160a01b0316331461040a5760405162461bcd60e51b815260206004820152600d60248201526c2737ba103a34329037bbb732b960991b60448201526064015b60405180910390fd5b806104575760405162461bcd60e51b815260206004820152601560248201527f4e6f206164647265737365732070726f766964656400000000000000000000006044820152606401610401565b60648111156104a85760405162461bcd60e51b815260206004820152601260248201527f546f6f206d616e792061646472657373657300000000000000000000000000006044820152606401610401565b60005b818110156105d45760008383838181106104c7576104c7611034565b90506020020160208101906104dc9190610fbd565b6001600160a01b03811660009081526005602052604090205490915060ff16156105c1576001600160a01b03811660008181526003602090815260408083208054908490558084526004835281842080546001600160a01b031916905593835260059091528120805460ff19169055600680549161055983611060565b909155505060405181906001600160a01b038416907f713b90881ad62c4fa8ab6bd9197fa86481fc0c11b2edba60026514281b2dbac490600090a360405181907ff27b6ce5b2f5e68ddb2fd95a8a909d4ecf1daaac270935fff052feacb24f184290600090a2505b50806105cc81611077565b9150506104ab565b505050565b600080546105e690611090565b80601f016020809104026020016040519081016040528092919081815260200182805461061290611090565b801561065f5780601f106106345761010080835404028352916020019161065f565b820191906000526020600020905b81548152906001019060200180831161064257829003601f168201915b505050505081565b60405162461bcd60e51b815260206004820152601960248201527f5342547320617265206e6f6e2d7472616e7366657261626c65000000000000006044820152606401610401565b6060600060065467ffffffffffffffff8111156106ce576106ce6110ca565b6040519080825280602002602001820160405280156106f7578160200160208202803683370190505b5092915050565b6002546001600160a01b031633146107485760405162461bcd60e51b815260206004820152600d60248201526c2737ba103a34329037bbb732b960991b6044820152606401610401565b6001600160a01b03811661079e5760405162461bcd60e51b815260206004820152601b60248201527f43616e6e6f74206d696e7420746f207a65726f206164647265737300000000006044820152606401610401565b6001600160a01b03811660009081526005602052604090205460ff16156108075760405162461bcd60e51b815260206004820152601760248201527f4164647265737320616c726561647920686173205342540000000000000000006044820152606401610401565b600780546000918261081883611077565b909155506001600160a01b03831660008181526003602090815260408083208590558483526004825280832080546001600160a01b0319168517905592825260059052908120805460ff19166001179055600680549293509061087a83611077565b909155505060405181906001600160a01b038416907f30385c845b448a36257a6a1716e6ad2e1bc2cbe333cde1e69fe849ad6511adfe90600090a360405181907f032bc66be43dbccb7487781d168eb7bda224628a3b2c3388bdf69b532a3a161190600090a25050565b6001600160a01b03811660009081526005602052604081205460ff1661090b57600061090e565b60015b60ff1692915050565b6002546001600160a01b031633146109615760405162461bcd60e51b815260206004820152600d60248201526c2737ba103a34329037bbb732b960991b6044820152606401610401565b6001600160a01b03811660009081526005602052604090205460ff166109c95760405162461bcd60e51b815260206004820152601960248201527f4164647265737320646f6573206e6f74206861766520534254000000000000006044820152606401610401565b6001600160a01b03811660008181526003602090815260408083208054908490558084526004835281842080546001600160a01b031916905593835260059091528120805460ff191690556006805491610a2283611060565b909155505060405181906001600160a01b038416907f713b90881ad62c4fa8ab6bd9197fa86481fc0c11b2edba60026514281b2dbac490600090a360405181907ff27b6ce5b2f5e68ddb2fd95a8a909d4ecf1daaac270935fff052feacb24f184290600090a25050565b600180546105e690611090565b6002546001600160a01b03163314610ae35760405162461bcd60e51b815260206004820152600d60248201526c2737ba103a34329037bbb732b960991b6044820152606401610401565b80610b305760405162461bcd60e51b815260206004820152601660248201527f4e6f20726563697069656e74732070726f7669646564000000000000000000006044820152606401610401565b6064811115610b815760405162461bcd60e51b815260206004820152601360248201527f546f6f206d616e7920726563697069656e7473000000000000000000000000006044820152606401610401565b60005b818110156105d4576000838383818110610ba057610ba0611034565b9050602002016020810190610bb59190610fbd565b90506001600160a01b03811615801590610be857506001600160a01b03811660009081526005602052604090205460ff16155b15610cc8576007805460009182610bfe83611077565b909155506001600160a01b03831660008181526003602090815260408083208590558483526004825280832080546001600160a01b0319168517905592825260059052908120805460ff191660011790556006805492935090610c6083611077565b909155505060405181906001600160a01b038416907f30385c845b448a36257a6a1716e6ad2e1bc2cbe333cde1e69fe849ad6511adfe90600090a360405181907f032bc66be43dbccb7487781d168eb7bda224628a3b2c3388bdf69b532a3a161190600090a2505b5080610cd381611077565b915050610b84565b6002546001600160a01b03163314610d255760405162461bcd60e51b815260206004820152600d60248201526c2737ba103a34329037bbb732b960991b6044820152606401610401565b6001600160a01b038116610d7b5760405162461bcd60e51b815260206004820181905260248201527f4e6577206f776e65722063616e6e6f74206265207a65726f20616464726573736044820152606401610401565b6002546001600160a01b0390811690821603610dd95760405162461bcd60e51b815260206004820152601b60248201527f4e6577206f776e6572206d75737420626520646966666572656e7400000000006044820152606401610401565b600280546001600160a01b038381166001600160a01b0319831681179093556040519116919082907f8be0079c531659141344cd1fd0a4f28419497f9722a3daafe3b4186f6b6457e090600090a35050565b60008060208385031215610e3e57600080fd5b823567ffffffffffffffff80821115610e5657600080fd5b818501915085601f830112610e6a57600080fd5b813581811115610e7957600080fd5b8660208260051b8501011115610e8e57600080fd5b60209290920196919550909350505050565b600060208083528351808285015260005b81811015610ecd57858101830151858201604001528201610eb1565b506000604082860101526040601f19601f8301168501019250505092915050565b80356001600160a01b0381168114610f0557600080fd5b919050565b60008060408385031215610f1d57600080fd5b610f2683610eee565b946020939093013593505050565b6020808252825182820181905260009190848201906040850190845b81811015610f755783516001600160a01b031683529284019291840191600101610f50565b50909695505050505050565b600080600060608486031215610f9657600080fd5b610f9f84610eee565b9250610fad60208501610eee565b9150604084013590509250925092565b600060208284031215610fcf57600080fd5b610fd882610eee565b9392505050565b600060208284031215610ff157600080fd5b5035919050565b6000806040838503121561100b57600080fd5b61101483610eee565b91506020830135801515811461102957600080fd5b809150509250929050565b634e487b7160e01b600052603260045260246000fd5b634e487b7160e01b600052601160045260246000fd5b60008161106f5761106f61104a565b506000190190565b6000600182016110895761108961104a565b5060010190565b600181811c908216806110a457607f821691505b6020821081036110c457634e487b7160e01b600052602260045260246000fd5b50919050565b634e487b7160e01b600052604160045260246000fdfea2646970667358221220b2471d43ee7f58eae581fa183f08b22b2939d23576649c2162ac12c638ef26b564736f6c63430008140033",
  "linkReferences": {},
  "deployedLinkReferences": {}
}