{
  "_format": "hh-sol-artifact-1",
  "contractName": "Payments",
  "sourceName": "contracts/Payments.sol",
  "abi": [
    {
      "inputs": [
        {
          "internalType": "address",
          "name": "_pyusdTokenAddress",
          "type": "address"
        }
      ],
      "stateMutability": "nonpayable",
      "type": "constructor"
    },
    {
      "inputs": [
        {
          "internalType": "address",
          "name": "owner",
          "type": "address"
        }
      ],
      "name": "OwnableInvalidOwner",
      "type": "error"
    },
    {
      "inputs": [
        {
          "internalType": "address",
          "name": "account",
          "type": "address"
        }
      ],
      "name": "OwnableUnauthorizedAccount",
      "type": "error"
    },
    {
      "anonymous": false,
      "inputs": [
        {
          "indexed": true,
          "internalType": "address",
          "name": "previousOwner",
          "type": "address"
        },
        {
          "indexed": true,
          "internalType": "address",
          "name": "newOwner",
          "type": "address"
        }
      ],
      "name": "OwnershipTransferred",
      "type": "event"
    },
    {
      "anonymous": false,
      "inputs": [
        {
          "indexed": true,
          "internalType": "address",
          "name": "from",
          "type": "address"
        },
        {
          "indexed": true,
          "internalType": "address",
          "name": "to",
          "type": "address"
        },
        {
          "indexed": false,
          "internalType": "uint256",
          "name": "amount",
          "type": "uint256"
        }
      ],
      "name": "PaymentSent",
      "type": "event"
    },
    {
      "inputs": [],
      "name": "owner",
      "outputs": [
        {
          "internalType": "address",
          "name": "",
          "type": "address"
        }
      ],
      "stateMutability": "view",
      "type": "function"
    },
    {
      "inputs": [],
      "name": "pyusdToken",
      "outputs": [
        {
          "internalType": "contract IERC20",
          "name": "",
          "type": "address"
        }
      ],
      "stateMutability": "view",
      "type": "function"
    },
    {
      "inputs": [],
      "name": "renounceOwnership",
      "outputs": [],
      "stateMutability": "nonpayable",
      "type": "function"
    },
    {
      "inputs": [
        {
          "internalType": "address",
          "name": "_to",
          "type": "address"
        },
        {
          "internalType": "uint256",
          "name": "_amount",
          "type": "uint256"
        }
      ],
      "name": "sendPayment",
      "outputs": [],
      "stateMutability": "nonpayable",
      "type": "function"
    },
    {
      "inputs": [
        {
          "internalType": "address",
          "name": "_pyusdTokenAddress",
          "type": "address"
        }
      ],
      "name": "setTokenAddress",
      "outputs": [],
      "stateMutability": "nonpayable",
      "type": "function"
    },
    {
      "inputs": [
        {
          "internalType": "address",
          "name": "newOwner",
          "type": "address"
        }
      ],
      "name": "transferOwnership",
      "outputs": [],
      "stateMutability": "nonpayable",
      "type": "function"
    }
  ],
  "bytecode": "0x608060405234801561001057600080fd5b5060405161072838038061072883398101604081905261002f916100d4565b338061005557604051631e4fbdf760e01b81526000600482015260240160405180910390fd5b61005e81610084565b50600180546001600160a01b0319166001600160a01b0392909216919091179055610104565b600080546001600160a01b038381166001600160a01b0319831681178455604051919092169283917f8be0079c531659141344cd1fd0a4f28419497f9722a3daafe3b4186f6b6457e09190a35050565b6000602082840312156100e657600080fd5b81516001600160a01b03811681146100fd57600080fd5b9392505050565b610615806101136000396000f3fe608060405234801561001057600080fd5b50600436106100725760003560e01c8063917630091161005057806391763009146100bd578063935f4c18146100d0578063f2fde38b146100e357600080fd5b806326a4e8d214610077578063715018a61461008c5780638da5cb5b14610094575b600080fd5b61008a610085366004610558565b6100f6565b005b61008a61012d565b6000546001600160a01b03165b6040516001600160a01b03909116815260200160405180910390f35b6001546100a1906001600160a01b031681565b61008a6100de36600461057a565b610141565b61008a6100f1366004610558565b610442565b6100fe610499565b6001805473ffffffffffffffffffffffffffffffffffffffff19166001600160a01b0392909216919091179055565b610135610499565b61013f60006104df565b565b6001600160a01b0382166101c25760405162461bcd60e51b815260206004820152602960248201527f5061796d656e74733a2063616e6e6f742073656e6420746f20746865207a657260448201527f6f2061646472657373000000000000000000000000000000000000000000000060648201526084015b60405180910390fd5b600081116102385760405162461bcd60e51b815260206004820152602a60248201527f5061796d656e74733a20616d6f756e74206d757374206265206772656174657260448201527f207468616e207a65726f0000000000000000000000000000000000000000000060648201526084016101b9565b6001546040517fdd62ed3e0000000000000000000000000000000000000000000000000000000081523360048201523060248201526000916001600160a01b03169063dd62ed3e90604401602060405180830381865afa1580156102a0573d6000803e3d6000fd5b505050506040513d601f19601f820116820180604052508101906102c491906105a4565b9050818110156103165760405162461bcd60e51b815260206004820152601f60248201527f5061796d656e74733a20636865636b20746f6b656e20616c6c6f77616e63650060448201526064016101b9565b6001546040517f23b872dd0000000000000000000000000000000000000000000000000000000081523360048201526001600160a01b0385811660248301526044820185905260009216906323b872dd906064016020604051808303816000875af1158015610389573d6000803e3d6000fd5b505050506040513d601f19601f820116820180604052508101906103ad91906105bd565b9050806103fc5760405162461bcd60e51b815260206004820152601f60248201527f5061796d656e74733a20746f6b656e207472616e73666572206661696c65640060448201526064016101b9565b6040518381526001600160a01b0385169033907fd52bd61f7c422d441e024604f4517878fd3305d6acf0fe37baef23ed21af6bc99060200160405180910390a350505050565b61044a610499565b6001600160a01b03811661048d576040517f1e4fbdf7000000000000000000000000000000000000000000000000000000008152600060048201526024016101b9565b610496816104df565b50565b6000546001600160a01b0316331461013f576040517f118cdaa70000000000000000000000000000000000000000000000000000000081523360048201526024016101b9565b600080546001600160a01b0383811673ffffffffffffffffffffffffffffffffffffffff19831681178455604051919092169283917f8be0079c531659141344cd1fd0a4f28419497f9722a3daafe3b4186f6b6457e09190a35050565b80356001600160a01b038116811461055357600080fd5b919050565b60006020828403121561056a57600080fd5b6105738261053c565b9392505050565b6000806040838503121561058d57600080fd5b6105968361053c565b946020939093013593505050565b6000602082840312156105b657600080fd5b5051919050565b6000602082840312156105cf57600080fd5b8151801515811461057357600080fdfea2646970667358221220919ef71008b57296df7ca68a6c8d52fd37521292bd213bd7a92c272221bdac6664736f6c63430008140033",
  "linkReferences": {},
  "deployedLinkReferences": {}
}