{
  "_format": "hh-sol-artifact-1",
  "contractName": "PYUSDPaymentGateway",
  "sourceName": "contracts/PYUSDPaymentGateway.sol",
  "abi": [
    {
      "inputs": [
        {
          "internalType": "address",
          "name": "_pyusdToken",
          "type": "address"
        },
        {
          "internalType": "address",
          "name": "_sbtContract",
          "type": "address"
        }
      ],
      "stateMutability": "nonpayable",
      "type": "constructor"
    },
    {
      "inputs": [
        {
          "internalType": "address",
          "name": "owner",
          "type": "address"
        }
      ],
      "name": "OwnableInvalidOwner",
      "type": "error"
    },
    {
      "inputs": [
        {
          "internalType": "address",
          "name": "account",
          "type": "address"
        }
      ],
      "name": "OwnableUnauthorizedAccount",
      "type": "error"
    },
    {
      "inputs": [],
      "name": "ReentrancyGuardReentrantCall",
      "type": "error"
    },
    {
      "anonymous": false,
      "inputs": [
        {
          "indexed": false,
          "internalType": "uint256",
          "name": "newFee",
          "type": "uint256"
        }
      ],
      "name": "FeeUpdated",
      "type": "event"
    },
    {
      "anonymous": false,
      "inputs": [
        {
          "indexed": false,
          "internalType": "uint256",
          "name": "newDailyLimit",
          "type": "uint256"
        },
        {
          "indexed": false,
          "internalType": "uint256",
          "name": "newMonthlyLimit",
          "type": "uint256"
        }
      ],
      "name": "LimitsUpdated",
      "type": "event"
    },
    {
      "anonymous": false,
      "inputs": [
        {
          "indexed": true,
          "internalType": "address",
          "name": "previousOwner",
          "type": "address"
        },
        {
          "indexed": true,
          "internalType": "address",
          "name": "newOwner",
          "type": "address"
        }
      ],
      "name": "OwnershipTransferred",
      "type": "event"
    },
    {
      "anonymous": false,
      "inputs": [
        {
          "indexed": true,
          "internalType": "string",
          "name": "paymentId",
          "type": "string"
        },
        {
          "indexed": true,
          "internalType": "address",
          "name": "from",
          "type": "address"
        },
        {
          "indexed": true,
          "internalType": "address",
          "name": "to",
          "type": "address"
        },
        {
          "indexed": false,
          "internalType": "uint256",
          "name": "amount",
          "type": "uint256"
        },
        {
          "indexed": false,
          "internalType": "uint256",
          "name": "fee",
          "type": "uint256"
        }
      ],
      "name": "PaymentCompleted",
      "type": "event"
    },
    {
      "anonymous": false,
      "inputs": [
        {
          "indexed": true,
          "internalType": "string",
          "name": "paymentId",
          "type": "string"
        },
        {
          "indexed": true,
          "internalType": "address",
          "name": "from",
          "type": "address"
        },
        {
          "indexed": false,
          "internalType": "string",
          "name": "reason",
          "type": "string"
        }
      ],
      "name": "PaymentFailed",
      "type": "event"
    },
    {
      "anonymous": false,
      "inputs": [
        {
          "indexed": true,
          "internalType": "string",
          "name": "paymentId",
          "type": "string"
        },
        {
          "indexed": true,
          "internalType": "address",
          "name": "from",
          "type": "address"
        },
        {
          "indexed": true,
          "internalType": "address",
          "name": "to",
          "type": "address"
        },
        {
          "indexed": false,
          "internalType": "uint256",
          "name": "amount",
          "type": "uint256"
        },
        {
          "indexed": false,
          "internalType": "string",
          "name": "description",
          "type": "string"
        }
      ],
      "name": "PaymentInitiated",
      "type": "event"
    },
    {
      "inputs": [],
      "name": "FEE_DENOMINATOR",
      "outputs": [
        {
          "internalType": "uint256",
          "name": "",
          "type": "uint256"
        }
      ],
      "stateMutability": "view",
      "type": "function"
    },
    {
      "inputs": [
        {
          "internalType": "address",
          "name": "user",
          "type": "address"
        },
        {
          "internalType": "uint256",
          "name": "amount",
          "type": "uint256"
        }
      ],
      "name": "canMakePayment",
      "outputs": [
        {
          "internalType": "bool",
          "name": "",
          "type": "bool"
        },
        {
          "internalType": "string",
          "name": "",
          "type": "string"
        }
      ],
      "stateMutability": "view",
      "type": "function"
    },
    {
      "inputs": [
        {
          "internalType": "string",
          "name": "paymentId",
          "type": "string"
        }
      ],
      "name": "cancelPayment",
      "outputs": [],
      "stateMutability": "nonpayable",
      "type": "function"
    },
    {
      "inputs": [
        {
          "internalType": "string",
          "name": "paymentId",
          "type": "string"
        }
      ],
      "name": "completePayment",
      "outputs": [],
      "stateMutability": "nonpayable",
      "type": "function"
    },
    {
      "inputs": [],
      "name": "dailyLimit",
      "outputs": [
        {
          "internalType": "uint256",
          "name": "",
          "type": "uint256"
        }
      ],
      "stateMutability": "view",
      "type": "function"
    },
    {
      "inputs": [
        {
          "internalType": "address",
          "name": "",
          "type": "address"
        },
        {
          "internalType": "uint256",
          "name": "",
          "type": "uint256"
        }
      ],
      "name": "dailySpending",
      "outputs": [
        {
          "internalType": "uint256",
          "name": "",
          "type": "uint256"
        }
      ],
      "stateMutability": "view",
      "type": "function"
    },
    {
      "inputs": [
        {
          "internalType": "address",
          "name": "user",
          "type": "address"
        },
        {
          "internalType": "uint256",
          "name": "day",
          "type": "uint256"
        }
      ],
      "name": "getDailySpending",
      "outputs": [
        {
          "internalType": "uint256",
          "name": "",
          "type": "uint256"
        }
      ],
      "stateMutability": "view",
      "type": "function"
    },
    {
      "inputs": [
        {
          "internalType": "address",
          "name": "user",
          "type": "address"
        },
        {
          "internalType": "uint256",
          "name": "month",
          "type": "uint256"
        }
      ],
      "name": "getMonthlySpending",
      "outputs": [
        {
          "internalType": "uint256",
          "name": "",
          "type": "uint256"
        }
      ],
      "stateMutability": "view",
      "type": "function"
    },
    {
      "inputs": [
        {
          "internalType": "string",
          "name": "paymentId",
          "type": "string"
        }
      ],
      "name": "getPayment",
      "outputs": [
        {
          "components": [
            {
              "internalType": "address",
              "name": "from",
              "type": "address"
            },
            {
              "internalType": "address",
              "name": "to",
              "type": "address"
            },
            {
              "internalType": "uint256",
              "name": "amount",
              "type": "uint256"
            },
            {
              "internalType": "uint256",
              "name": "timestamp",
              "type": "uint256"
            },
            {
              "internalType": "string",
              "name": "description",
              "type": "string"
            },
            {
              "internalType": "bool",
              "name": "completed",
              "type": "bool"
            },
            {
              "internalType": "string",
              "name": "paymentId",
              "type": "string"
            }
          ],
          "internalType": "struct PYUSDPaymentGateway.Payment",
          "name": "",
          "type": "tuple"
        }
      ],
      "stateMutability": "view",
      "type": "function"
    },
    {
      "inputs": [
        {
          "internalType": "address",
          "name": "user",
          "type": "address"
        }
      ],
      "name": "getUserPayments",
      "outputs": [
        {
          "internalType": "string[]",
          "name": "",
          "type": "string[]"
        }
      ],
      "stateMutability": "view",
      "type": "function"
    },
    {
      "inputs": [
        {
          "internalType": "address",
          "name": "to",
          "type": "address"
        },
        {
          "internalType": "uint256",
          "name": "amount",
          "type": "uint256"
        },
        {
          "internalType": "string",
          "name": "description",
          "type": "string"
        },
        {
          "internalType": "string",
          "name": "paymentId",
          "type": "string"
        }
      ],
      "name": "initiatePayment",
      "outputs": [],
      "stateMutability": "nonpayable",
      "type": "function"
    },
    {
      "inputs": [],
      "name": "monthlyLimit",
      "outputs": [
        {
          "internalType": "uint256",
          "name": "",
          "type": "uint256"
        }
      ],
      "stateMutability": "view",
      "type": "function"
    },
    {
      "inputs": [
        {
          "internalType": "address",
          "name": "",
          "type": "address"
        },
        {
          "internalType": "uint256",
          "name": "",
          "type": "uint256"
        }
      ],
      "name": "monthlySpending",
      "outputs": [
        {
          "internalType": "uint256",
          "name": "",
          "type": "uint256"
        }
      ],
      "stateMutability": "view",
      "type": "function"
    },
    {
      "inputs": [],
      "name": "owner",
      "outputs": [
        {
          "internalType": "address",
          "name": "",
          "type": "address"
        }
      ],
      "stateMutability": "view",
      "type": "function"
    },
    {
      "inputs": [
        {
          "internalType": "string",
          "name": "",
          "type": "string"
        }
      ],
      "name": "payments",
      "outputs": [
        {
          "internalType": "address",
          "name": "from",
          "type": "address"
        },
        {
          "internalType": "address",
          "name": "to",
          "type": "address"
        },
        {
          "internalType": "uint256",
          "name": "amount",
          "type": "uint256"
        },
        {
          "internalType": "uint256",
          "name": "timestamp",
          "type": "uint256"
        },
        {
          "internalType": "string",
          "name": "description",
          "type": "string"
        },
        {
          "internalType": "bool",
          "name": "completed",
          "type": "bool"
        },
        {
          "internalType": "string",
          "name": "paymentId",
          "type": "string"
        }
      ],
      "stateMutability": "view",
      "type": "function"
    },
    {
      "inputs": [],
      "name": "pyusdToken",
      "outputs": [
        {
          "internalType": "contract IERC20",
          "name": "",
          "type": "address"
        }
      ],
      "stateMutability": "view",
      "type": "function"
    },
    {
      "inputs": [],
      "name": "renounceOwnership",
      "outputs": [],
      "stateMutability": "nonpayable",
      "type": "function"
    },
    {
      "inputs": [],
      "name": "sbtContract",
      "outputs": [
        {
          "internalType": "contract SoulBoundToken",
          "name": "",
          "type": "address"
        }
      ],
      "stateMutability": "view",
      "type": "function"
    },
    {
      "inputs": [],
      "name": "transactionFee",
      "outputs": [
        {
          "internalType": "uint256",
          "name": "",
          "type": "uint256"
        }
      ],
      "stateMutability": "view",
      "type": "function"
    },
    {
      "inputs": [
        {
          "internalType": "address",
          "name": "newOwner",
          "type": "address"
        }
      ],
      "name": "transferOwnership",
      "outputs": [],
      "stateMutability": "nonpayable",
      "type": "function"
    },
    {
      "inputs": [
        {
          "internalType": "uint256",
          "name": "newFee",
          "type": "uint256"
        }
      ],
      "name": "updateFee",
      "outputs": [],
      "stateMutability": "nonpayable",
      "type": "function"
    },
    {
      "inputs": [
        {
          "internalType": "uint256",
          "name": "newDailyLimit",
          "type": "uint256"
        },
        {
          "internalType": "uint256",
          "name": "newMonthlyLimit",
          "type": "uint256"
        }
      ],
      "name": "updateLimits",
      "outputs": [],
      "stateMutability": "nonpayable",
      "type": "function"
    },
    {
      "inputs": [
        {
          "internalType": "address",
          "name": "newPYUSDToken",
          "type": "address"
        }
      ],
      "name": "updatePYUSDToken",
      "outputs": [],
      "stateMutability": "nonpayable",
      "type": "function"
    },
    {
      "inputs": [
        {
          "internalType": "address",
          "name": "newSBTContract",
          "type": "address"
        }
      ],
      "name": "updateSBTContract",
      "outputs": [],
      "stateMutability": "nonpayable",
      "type": "function"
    },
    {
      "inputs": [
        {
          "internalType": "address",
          "name": "",
          "type": "address"
        },
        {
          "internalType": "uint256",
          "name": "",
          "type": "uint256"
        }
      ],
      "name": "userPayments",
      "outputs": [
        {
          "internalType": "string",
          "name": "",
          "type": "string"
        }
      ],
      "stateMutability": "view",
      "type": "function"
    }
  ],
  "bytecode": "0x608060405260196006556402540be40060075564174876e8006008553480156200002857600080fd5b506040516200255a3803806200255a8339810160408190526200004b9162000121565b33806200007257604051631e4fbdf760e01b81526000600482015260240160405180910390fd5b6200007d81620000b4565b5060018055600280546001600160a01b039384166001600160a01b0319918216179091556003805492909316911617905562000159565b600080546001600160a01b038381166001600160a01b0319831681178455604051919092169283917f8be0079c531659141344cd1fd0a4f28419497f9722a3daafe3b4186f6b6457e09190a35050565b80516001600160a01b03811681146200011c57600080fd5b919050565b600080604083850312156200013557600080fd5b620001408362000104565b9150620001506020840162000104565b90509250929050565b6123f180620001696000396000f3fe608060405234801561001057600080fd5b50600436106101a35760003560e01c80639d7dadeb116100ee578063c50ec60211610097578063e158f59011610071578063e158f59014610386578063e90a1b6e146103bc578063f2fde38b146103dd578063f9468713146103f057600080fd5b8063c50ec6021461034a578063c69207a31461035d578063d73792a91461037d57600080fd5b8063b6b89528116100c8578063b6b89528146102f9578063ba464b011461030c578063c083277f1461033757600080fd5b80639d7dadeb146102bd5780639ed3edf0146102dd578063a2240e19146102e657600080fd5b8063715018a6116101505780638da5cb5b1161012a5780638da5cb5b146102865780639012c4a81461029757806391763009146102aa57600080fd5b8063715018a61461024b57806384126e01146102535780638cfeab351461026657600080fd5b80635ec10afc116101815780635ec10afc146102045780636767d6961461022f57806367eeba0c1461024257600080fd5b806306158360146101a85780630a6005da146101d8578063101bdd17146101ef575b600080fd5b6003546101bb906001600160a01b031681565b6040516001600160a01b0390911681526020015b60405180910390f35b6101e160085481565b6040519081526020016101cf565b6102026101fd366004611df7565b610416565b005b6101e1610212366004611e19565b600960209081526000928352604080842090915290825290205481565b6101e161023d366004611e19565b6104a8565b6101e160075481565b6102026104d3565b610202610261366004611ee6565b6104e7565b610279610274366004611e19565b6106ab565b6040516101cf9190611f73565b6000546001600160a01b03166101bb565b6102026102a5366004611f86565b610764565b6002546101bb906001600160a01b031681565b6102d06102cb366004611df7565b6107f9565b6040516101cf9190611f9f565b6101e160065481565b6102026102f4366004612001565b6108e8565b610202610307366004611ee6565b610a97565b6101e161031a366004611e19565b600a60209081526000928352604080842090915290825290205481565b610202610345366004611df7565b610f31565b610202610358366004612023565b610fbe565b61037061036b366004611ee6565b611638565b6040516101cf91906120a1565b6101e161271081565b6101e1610394366004611e19565b6001600160a01b03919091166000908152600960209081526040808320938352929052205490565b6103cf6103ca366004611e19565b611829565b6040516101cf929190612125565b6102026103eb366004611df7565b611b2f565b6104036103fe366004611ee6565b611b83565b6040516101cf9796959493929190612140565b61041e611cf5565b6001600160a01b0381166104795760405162461bcd60e51b815260206004820152601c60248201527f496e76616c69642053425420636f6e747261637420616464726573730000000060448201526064015b60405180910390fd5b6003805473ffffffffffffffffffffffffffffffffffffffff19166001600160a01b0392909216919091179055565b6001600160a01b0382166000908152600a602090815260408083208484529091529020545b92915050565b6104db611cf5565b6104e56000611d3b565b565b60006004826040516104f991906121a0565b90815260405190819003602001902080549091506001600160a01b03166105625760405162461bcd60e51b815260206004820152601160248201527f5061796d656e74206e6f7420666f756e640000000000000000000000000000006044820152606401610470565b600581015460ff16156105b75760405162461bcd60e51b815260206004820152601960248201527f5061796d656e7420616c726561647920636f6d706c65746564000000000000006044820152606401610470565b80546001600160a01b031633146106105760405162461bcd60e51b815260206004820152601d60248201527f4f6e6c792070617965722063616e2063616e63656c207061796d656e740000006044820152606401610470565b60058101805460ff1916905580546040516001600160a01b03909116906106389084906121a0565b60405180910390207fd0a62ef1e529a39bbd73825c37ec633fd46e1173aabcf5125097a9943db2a79460405161069f9060208082526019908201527f5061796d656e742063616e63656c6c6564206279207573657200000000000000604082015260600190565b60405180910390a35050565b600560205281600052604060002081815481106106c757600080fd5b906000526020600020016000915091505080546106e3906121bc565b80601f016020809104026020016040519081016040528092919081815260200182805461070f906121bc565b801561075c5780601f106107315761010080835404028352916020019161075c565b820191906000526020600020905b81548152906001019060200180831161073f57829003601f168201915b505050505081565b61076c611cf5565b6103e88111156107be5760405162461bcd60e51b815260206004820152601560248201527f4665652063616e6e6f74206578636565642031302500000000000000000000006044820152606401610470565b60068190556040518181527f8c4d35e54a3f2ef1134138fd8ea3daee6a3c89e10d2665996babdf70261e2c769060200160405180910390a150565b6001600160a01b0381166000908152600560209081526040808320805482518185028101850190935280835260609492939192909184015b828210156108dd578382906000526020600020018054610850906121bc565b80601f016020809104026020016040519081016040528092919081815260200182805461087c906121bc565b80156108c95780601f1061089e576101008083540402835291602001916108c9565b820191906000526020600020905b8154815290600101906020018083116108ac57829003601f168201915b505050505081526020019060010190610831565b505050509050919050565b6108f0611cf5565b600082116109665760405162461bcd60e51b815260206004820152602260248201527f4461696c79206c696d6974206d7573742062652067726561746572207468616e60448201527f20300000000000000000000000000000000000000000000000000000000000006064820152608401610470565b600081116109db5760405162461bcd60e51b8152602060048201526024808201527f4d6f6e74686c79206c696d6974206d757374206265206772656174657220746860448201527f616e2030000000000000000000000000000000000000000000000000000000006064820152608401610470565b81811015610a505760405162461bcd60e51b8152602060048201526024808201527f4d6f6e74686c79206c696d6974206d757374206265203e3d206461696c79206c60448201527f696d6974000000000000000000000000000000000000000000000000000000006064820152608401610470565b6007829055600881905560408051838152602081018390527f4d4981437d0211f9e6843eb024d9ada1fa3a99514d4343d4aece106dd11524bb910160405180910390a15050565b610a9f611d98565b6000600482604051610ab191906121a0565b90815260405190819003602001902080549091506001600160a01b0316610b1a5760405162461bcd60e51b815260206004820152601160248201527f5061796d656e74206e6f7420666f756e640000000000000000000000000000006044820152606401610470565b600581015460ff1615610b6f5760405162461bcd60e51b815260206004820152601960248201527f5061796d656e7420616c726561647920636f6d706c65746564000000000000006044820152606401610470565b80546001600160a01b03163314610bc85760405162461bcd60e51b815260206004820152601f60248201527f4f6e6c792070617965722063616e20636f6d706c657465207061796d656e74006044820152606401610470565b60006127106006548360020154610bdf919061220c565b610be99190612223565b90506000818360020154610bfd9190612245565b6002546040516370a0823160e01b815233600482015291925082916001600160a01b03909116906370a0823190602401602060405180830381865afa158015610c4a573d6000803e3d6000fd5b505050506040513d601f19601f82011682018060405250810190610c6e9190612258565b1015610cbc5760405162461bcd60e51b815260206004820152601460248201527f496e73756666696369656e742062616c616e63650000000000000000000000006044820152606401610470565b600280546001850154918501546040517f23b872dd0000000000000000000000000000000000000000000000000000000081523360048201526001600160a01b03938416602482015260448101919091529116906323b872dd906064016020604051808303816000875af1158015610d38573d6000803e3d6000fd5b505050506040513d601f19601f82011682018060405250810190610d5c9190612271565b610da85760405162461bcd60e51b815260206004820152600f60248201527f5472616e73666572206661696c656400000000000000000000000000000000006044820152606401610470565b6002546001600160a01b03166323b872dd33610dcc6000546001600160a01b031690565b6040517fffffffff0000000000000000000000000000000000000000000000000000000060e085901b1681526001600160a01b03928316600482015291166024820152604481018590526064016020604051808303816000875af1158015610e38573d6000803e3d6000fd5b505050506040513d601f19601f82011682018060405250810190610e5c9190612271565b610ea85760405162461bcd60e51b815260206004820152601360248201527f466565207472616e73666572206661696c6564000000000000000000000000006044820152606401610470565b60058301805460ff1916600190811790915583015483546040516001600160a01b03928316929190911690610ede9087906121a0565b604080519182900382206002880154835260208301879052917f883493158c5065d67fbfe37f94be1e2c2b64bed530fe31ac31215e545c112635910160405180910390a4505050610f2e60018055565b50565b610f39611cf5565b6001600160a01b038116610f8f5760405162461bcd60e51b815260206004820152601b60248201527f496e76616c696420505955534420746f6b656e206164647265737300000000006044820152606401610470565b6002805473ffffffffffffffffffffffffffffffffffffffff19166001600160a01b0392909216919091179055565b600354604051632a5bb1b760e11b81523360048201526001600160a01b03909116906354b7636e90602401602060405180830381865afa158015611006573d6000803e3d6000fd5b505050506040513d601f19601f8201168201806040525081019061102a9190612271565b6110765760405162461bcd60e51b815260206004820152601960248201527f4b594320766572696669636174696f6e207265717569726564000000000000006044820152606401610470565b8060008151116110c85760405162461bcd60e51b815260206004820152601260248201527f496e76616c6964207061796d656e7420494400000000000000000000000000006044820152606401610470565b60006001600160a01b03166004826040516110e391906121a0565b908152604051908190036020019020546001600160a01b0316146111495760405162461bcd60e51b815260206004820152601960248201527f5061796d656e7420494420616c726561647920657869737473000000000000006044820152606401610470565b611151611d98565b6001600160a01b0385166111a75760405162461bcd60e51b815260206004820152601960248201527f496e76616c696420726563697069656e742061646472657373000000000000006044820152606401610470565b600084116111f75760405162461bcd60e51b815260206004820152601d60248201527f416d6f756e74206d7573742062652067726561746572207468616e20300000006044820152606401610470565b336001600160a01b0386160361124f5760405162461bcd60e51b815260206004820152601360248201527f43616e6e6f742070617920796f757273656c66000000000000000000000000006044820152606401610470565b600061125e6201518042612223565b3360009081526009602090815260408083208484529091529020546007549192509061128a8783612245565b11156112d85760405162461bcd60e51b815260206004820152601460248201527f4461696c79206c696d69742065786365656465640000000000000000000000006044820152606401610470565b60006112e762278d0042612223565b336000908152600a60209081526040808320848452909152902054600854919250906113138983612245565b11156113615760405162461bcd60e51b815260206004820152601660248201527f4d6f6e74686c79206c696d6974206578636565646564000000000000000000006044820152606401610470565b60006127106006548a611374919061220c565b61137e9190612223565b9050600061138c828b612245565b6002546040516370a0823160e01b815233600482015291925082916001600160a01b03909116906370a0823190602401602060405180830381865afa1580156113d9573d6000803e3d6000fd5b505050506040513d601f19601f820116820180604052508101906113fd9190612258565b101561144b5760405162461bcd60e51b815260206004820152601460248201527f496e73756666696369656e742062616c616e63650000000000000000000000006044820152606401610470565b6040805160e0810182523381526001600160a01b038d1660208201528082018c9052426060820152608081018b9052600060a082015260c081018a90529051600490611498908b906121a0565b90815260408051602092819003830190208351815473ffffffffffffffffffffffffffffffffffffffff199081166001600160a01b03928316178355938501516001830180549095169116179092558201516002820155606082015160038201556080820151600482019061150d90826122e2565b5060a082015160058201805460ff191691151591909117905560c0820151600682019061153a90826122e2565b505033600090815260056020908152604082208054600181018255908352912001905061156789826122e2565b50336000908152600960209081526040808320898452909152812080548c9290611592908490612245565b9091555050336000908152600a60209081526040808320878452909152812080548c92906115c1908490612245565b90915550506040516001600160a01b038c169033906115e1908b906121a0565b60405180910390207f701b126f7af4d80b45be09ad1c07b706edaa5207c425796a4f399b5740d799308d8d60405161161a9291906123a2565b60405180910390a450505050505061163160018055565b5050505050565b61168c6040518060e0016040528060006001600160a01b0316815260200160006001600160a01b03168152602001600081526020016000815260200160608152602001600015158152602001606081525090565b60048260405161169c91906121a0565b90815260408051918290036020908101832060e08401835280546001600160a01b03908116855260018201541691840191909152600281015491830191909152600381015460608301526004810180546080840191906116fb906121bc565b80601f0160208091040260200160405190810160405280929190818152602001828054611727906121bc565b80156117745780601f1061174957610100808354040283529160200191611774565b820191906000526020600020905b81548152906001019060200180831161175757829003601f168201915b5050509183525050600582015460ff16151560208201526006820180546040909201916117a0906121bc565b80601f01602080910402602001604051908101604052809291908181526020018280546117cc906121bc565b80156118195780601f106117ee57610100808354040283529160200191611819565b820191906000526020600020905b8154815290600101906020018083116117fc57829003601f168201915b5050505050815250509050919050565b600354604051632a5bb1b760e11b81526001600160a01b0384811660048301526000926060929116906354b7636e90602401602060405180830381865afa158015611878573d6000803e3d6000fd5b505050506040513d601f19601f8201168201806040525081019061189c9190612271565b6118de57505060408051808201909152601981527f4b594320766572696669636174696f6e207265717569726564000000000000006020820152600090611b28565b60006118ed6201518042612223565b6001600160a01b0386166000908152600960209081526040808320848452909152902054600754919250906119228683612245565b111561196b5760006040518060400160405280601481526020017f4461696c79206c696d6974206578636565646564000000000000000000000000815250935093505050611b28565b600061197a62278d0042612223565b6001600160a01b0388166000908152600a60209081526040808320848452909152902054600854919250906119af8883612245565b11156119fa5760006040518060400160405280601681526020017f4d6f6e74686c79206c696d6974206578636565646564000000000000000000008152509550955050505050611b28565b600061271060065489611a0d919061220c565b611a179190612223565b90506000611a25828a612245565b6002546040516370a0823160e01b81526001600160a01b038d811660048301529293508392909116906370a0823190602401602060405180830381865afa158015611a74573d6000803e3d6000fd5b505050506040513d601f19601f82011682018060405250810190611a989190612258565b1015611ae55760006040518060400160405280601481526020017f496e73756666696369656e742062616c616e636500000000000000000000000081525097509750505050505050611b28565b60016040518060400160405280600f81526020017f5061796d656e7420616c6c6f7765640000000000000000000000000000000000815250975097505050505050505b9250929050565b611b37611cf5565b6001600160a01b038116611b7a576040517f1e4fbdf700000000000000000000000000000000000000000000000000000000815260006004820152602401610470565b610f2e81611d3b565b805160208183018101805160048083529383019290940191909120929052815460018301546002840154600385015493850180546001600160a01b0394851696949093169491939192611bd5906121bc565b80601f0160208091040260200160405190810160405280929190818152602001828054611c01906121bc565b8015611c4e5780601f10611c2357610100808354040283529160200191611c4e565b820191906000526020600020905b815481529060010190602001808311611c3157829003601f168201915b5050506005840154600685018054949560ff909216949193509150611c72906121bc565b80601f0160208091040260200160405190810160405280929190818152602001828054611c9e906121bc565b8015611ceb5780601f10611cc057610100808354040283529160200191611ceb565b820191906000526020600020905b815481529060010190602001808311611cce57829003601f168201915b5050505050905087565b6000546001600160a01b031633146104e5576040517f118cdaa7000000000000000000000000000000000000000000000000000000008152336004820152602401610470565b600080546001600160a01b0383811673ffffffffffffffffffffffffffffffffffffffff19831681178455604051919092169283917f8be0079c531659141344cd1fd0a4f28419497f9722a3daafe3b4186f6b6457e09190a35050565b600260015403611dd4576040517f3ee5aeb500000000000000000000000000000000000000000000000000000000815260040160405180910390fd5b6002600155565b80356001600160a01b0381168114611df257600080fd5b919050565b600060208284031215611e0957600080fd5b611e1282611ddb565b9392505050565b60008060408385031215611e2c57600080fd5b611e3583611ddb565b946020939093013593505050565b634e487b7160e01b600052604160045260246000fd5b600082601f830112611e6a57600080fd5b813567ffffffffffffffff80821115611e8557611e85611e43565b604051601f8301601f19908116603f01168101908282118183101715611ead57611ead611e43565b81604052838152866020858801011115611ec657600080fd5b836020870160208301376000602085830101528094505050505092915050565b600060208284031215611ef857600080fd5b813567ffffffffffffffff811115611f0f57600080fd5b611f1b84828501611e59565b949350505050565b60005b83811015611f3e578181015183820152602001611f26565b50506000910152565b60008151808452611f5f816020860160208601611f23565b601f01601f19169290920160200192915050565b602081526000611e126020830184611f47565b600060208284031215611f9857600080fd5b5035919050565b6000602080830181845280855180835260408601915060408160051b870101925083870160005b82811015611ff457603f19888603018452611fe2858351611f47565b94509285019290850190600101611fc6565b5092979650505050505050565b6000806040838503121561201457600080fd5b50508035926020909101359150565b6000806000806080858703121561203957600080fd5b61204285611ddb565b935060208501359250604085013567ffffffffffffffff8082111561206657600080fd5b61207288838901611e59565b9350606087013591508082111561208857600080fd5b5061209587828801611e59565b91505092959194509250565b6020815260006001600160a01b03808451166020840152806020850151166040840152506040830151606083015260608301516080830152608083015160e060a08401526120f3610100840182611f47565b905060a0840151151560c084015260c0840151601f198483030160e085015261211c8282611f47565b95945050505050565b8215158152604060208201526000611f1b6040830184611f47565b60006001600160a01b03808a16835280891660208401525086604083015285606083015260e0608083015261217860e0830186611f47565b84151560a084015282810360c08401526121928185611f47565b9a9950505050505050505050565b600082516121b2818460208701611f23565b9190910192915050565b600181811c908216806121d057607f821691505b6020821081036121f057634e487b7160e01b600052602260045260246000fd5b50919050565b634e487b7160e01b600052601160045260246000fd5b80820281158282048414176104cd576104cd6121f6565b60008261224057634e487b7160e01b600052601260045260246000fd5b500490565b808201808211156104cd576104cd6121f6565b60006020828403121561226a57600080fd5b5051919050565b60006020828403121561228357600080fd5b81518015158114611e1257600080fd5b601f8211156122dd57600081815260208120601f850160051c810160208610156122ba5750805b601f850160051c820191505b818110156122d9578281556001016122c6565b5050505b505050565b815167ffffffffffffffff8111156122fc576122fc611e43565b6123108161230a84546121bc565b84612293565b602080601f831160018114612345576000841561232d5750858301515b600019600386901b1c1916600185901b1785556122d9565b600085815260208120601f198616915b8281101561237457888601518255948401946001909101908401612355565b50858210156123925787850151600019600388901b60f8161c191681555b5050505050600190811b01905550565b828152604060208201526000611f1b6040830184611f4756fea2646970667358221220954ce445e4a4de33e9938e0ee2886d84ff73394cc8b2ff6eedda0aebd48a5c7664736f6c63430008140033",
  "linkReferences": {},
  "deployedLinkReferences": {}
}