{
  "_format": "hh-sol-artifact-1",
  "contractName": "KYCVerification",
  "sourceName": "contracts/KYCVerification.sol",
  "abi": [
    {
      "inputs": [],
      "stateMutability": "nonpayable",
      "type": "constructor"
    },
    {
      "anonymous": false,
      "inputs": [
        {
          "indexed": true,
          "internalType": "address",
          "name": "user",
          "type": "address"
        },
        {
          "indexed": false,
          "internalType": "string",
          "name": "amlStatus",
          "type": "string"
        }
      ],
      "name": "AMLStatusUpdated",
      "type": "event"
    },
    {
      "anonymous": false,
      "inputs": [
        {
          "indexed": true,
          "internalType": "address",
          "name": "provider",
          "type": "address"
        }
      ],
      "name": "KYCProviderActivated",
      "type": "event"
    },
    {
      "anonymous": false,
      "inputs": [
        {
          "indexed": true,
          "internalType": "address",
          "name": "provider",
          "type": "address"
        },
        {
          "indexed": false,
          "internalType": "string",
          "name": "providerName",
          "type": "string"
        }
      ],
      "name": "KYCProviderAdded",
      "type": "event"
    },
    {
      "anonymous": false,
      "inputs": [
        {
          "indexed": true,
          "internalType": "address",
          "name": "provider",
          "type": "address"
        }
      ],
      "name": "KYCProviderDeactivated",
      "type": "event"
    },
    {
      "anonymous": false,
      "inputs": [
        {
          "indexed": true,
          "internalType": "address",
          "name": "provider",
          "type": "address"
        }
      ],
      "name": "KYCProviderRemoved",
      "type": "event"
    },
    {
      "anonymous": false,
      "inputs": [
        {
          "indexed": false,
          "internalType": "uint8",
          "name": "newMaxScore",
          "type": "uint8"
        }
      ],
      "name": "MaxRiskScoreUpdated",
      "type": "event"
    },
    {
      "anonymous": false,
      "inputs": [
        {
          "indexed": true,
          "internalType": "address",
          "name": "user",
          "type": "address"
        },
        {
          "indexed": false,
          "internalType": "uint8",
          "name": "oldScore",
          "type": "uint8"
        },
        {
          "indexed": false,
          "internalType": "uint8",
          "name": "newScore",
          "type": "uint8"
        }
      ],
      "name": "RiskScoreUpdated",
      "type": "event"
    },
    {
      "anonymous": false,
      "inputs": [
        {
          "indexed": true,
          "internalType": "address",
          "name": "user",
          "type": "address"
        },
        {
          "indexed": false,
          "internalType": "string",
          "name": "referenceId",
          "type": "string"
        },
        {
          "indexed": false,
          "internalType": "uint256",
          "name": "expiryTimestamp",
          "type": "uint256"
        },
        {
          "indexed": false,
          "internalType": "uint8",
          "name": "riskScore",
          "type": "uint8"
        }
      ],
      "name": "VerificationApproved",
      "type": "event"
    },
    {
      "anonymous": false,
      "inputs": [
        {
          "indexed": true,
          "internalType": "address",
          "name": "user",
          "type": "address"
        },
        {
          "indexed": false,
          "internalType": "string",
          "name": "referenceId",
          "type": "string"
        }
      ],
      "name": "VerificationExpired",
      "type": "event"
    },
    {
      "anonymous": false,
      "inputs": [
        {
          "indexed": false,
          "internalType": "uint256",
          "name": "newPeriod",
          "type": "uint256"
        }
      ],
      "name": "VerificationExpiryPeriodUpdated",
      "type": "event"
    },
    {
      "anonymous": false,
      "inputs": [
        {
          "indexed": true,
          "internalType": "address",
          "name": "user",
          "type": "address"
        },
        {
          "indexed": false,
          "internalType": "string",
          "name": "referenceId",
          "type": "string"
        },
        {
          "indexed": false,
          "internalType": "string",
          "name": "reason",
          "type": "string"
        }
      ],
      "name": "VerificationRejected",
      "type": "event"
    },
    {
      "anonymous": false,
      "inputs": [
        {
          "indexed": true,
          "internalType": "address",
          "name": "user",
          "type": "address"
        },
        {
          "indexed": false,
          "internalType": "string",
          "name": "referenceId",
          "type": "string"
        },
        {
          "indexed": false,
          "internalType": "uint256",
          "name": "timestamp",
          "type": "uint256"
        }
      ],
      "name": "VerificationSubmitted",
      "type": "event"
    },
    {
      "anonymous": false,
      "inputs": [
        {
          "indexed": true,
          "internalType": "address",
          "name": "user",
          "type": "address"
        },
        {
          "indexed": false,
          "internalType": "string",
          "name": "referenceId",
          "type": "string"
        },
        {
          "indexed": false,
          "internalType": "string",
          "name": "reason",
          "type": "string"
        }
      ],
      "name": "VerificationSuspended",
      "type": "event"
    },
    {
      "inputs": [
        {
          "internalType": "address",
          "name": "provider",
          "type": "address"
        }
      ],
      "name": "activateKYCProvider",
      "outputs": [],
      "stateMutability": "nonpayable",
      "type": "function"
    },
    {
      "inputs": [
        {
          "internalType": "address",
          "name": "provider",
          "type": "address"
        },
        {
          "internalType": "string",
          "name": "providerName",
          "type": "string"
        }
      ],
      "name": "addKYCProvider",
      "outputs": [],
      "stateMutability": "nonpayable",
      "type": "function"
    },
    {
      "inputs": [],
      "name": "admin",
      "outputs": [
        {
          "internalType": "address",
          "name": "",
          "type": "address"
        }
      ],
      "stateMutability": "view",
      "type": "function"
    },
    {
      "inputs": [
        {
          "internalType": "address",
          "name": "user",
          "type": "address"
        },
        {
          "internalType": "string",
          "name": "referenceId",
          "type": "string"
        },
        {
          "internalType": "uint8",
          "name": "riskScore",
          "type": "uint8"
        },
        {
          "internalType": "string",
          "name": "amlStatus",
          "type": "string"
        }
      ],
      "name": "approveVerification",
      "outputs": [
        {
          "internalType": "bool",
          "name": "",
          "type": "bool"
        }
      ],
      "stateMutability": "nonpayable",
      "type": "function"
    },
    {
      "inputs": [],
      "name": "contractOwner",
      "outputs": [
        {
          "internalType": "address",
          "name": "",
          "type": "address"
        }
      ],
      "stateMutability": "view",
      "type": "function"
    },
    {
      "inputs": [
        {
          "internalType": "address",
          "name": "provider",
          "type": "address"
        }
      ],
      "name": "deactivateKYCProvider",
      "outputs": [],
      "stateMutability": "nonpayable",
      "type": "function"
    },
    {
      "inputs": [],
      "name": "getAllProviders",
      "outputs": [
        {
          "internalType": "address[]",
          "name": "",
          "type": "address[]"
        }
      ],
      "stateMutability": "view",
      "type": "function"
    },
    {
      "inputs": [
        {
          "internalType": "address",
          "name": "provider",
          "type": "address"
        }
      ],
      "name": "getProviderInfo",
      "outputs": [
        {
          "components": [
            {
              "internalType": "address",
              "name": "providerAddress",
              "type": "address"
            },
            {
              "internalType": "string",
              "name": "providerName",
              "type": "string"
            },
            {
              "internalType": "bool",
              "name": "isActive",
              "type": "bool"
            },
            {
              "internalType": "uint256",
              "name": "approvalCount",
              "type": "uint256"
            },
            {
              "internalType": "uint256",
              "name": "rejectionCount",
              "type": "uint256"
            }
          ],
          "internalType": "struct KYCVerification.KYCProvider",
          "name": "",
          "type": "tuple"
        }
      ],
      "stateMutability": "view",
      "type": "function"
    },
    {
      "inputs": [
        {
          "internalType": "address",
          "name": "user",
          "type": "address"
        }
      ],
      "name": "getVerificationRecord",
      "outputs": [
        {
          "components": [
            {
              "internalType": "address",
              "name": "userAddress",
              "type": "address"
            },
            {
              "internalType": "string",
              "name": "bridgeReferenceId",
              "type": "string"
            },
            {
              "internalType": "enum KYCVerification.VerificationStatus",
              "name": "status",
              "type": "uint8"
            },
            {
              "internalType": "uint256",
              "name": "submissionTimestamp",
              "type": "uint256"
            },
            {
              "internalType": "uint256",
              "name": "approvalTimestamp",
              "type": "uint256"
            },
            {
              "internalType": "uint256",
              "name": "expiryTimestamp",
              "type": "uint256"
            },
            {
              "internalType": "string",
              "name": "amlStatus",
              "type": "string"
            },
            {
              "internalType": "uint8",
              "name": "riskScore",
              "type": "uint8"
            },
            {
              "internalType": "string",
              "name": "verificationData",
              "type": "string"
            },
            {
              "internalType": "bool",
              "name": "documentVerified",
              "type": "bool"
            },
            {
              "internalType": "bool",
              "name": "faceVerified",
              "type": "bool"
            },
            {
              "internalType": "string",
              "name": "rejectionReason",
              "type": "string"
            }
          ],
          "internalType": "struct KYCVerification.VerificationRecord",
          "name": "",
          "type": "tuple"
        }
      ],
      "stateMutability": "view",
      "type": "function"
    },
    {
      "inputs": [
        {
          "internalType": "address",
          "name": "user",
          "type": "address"
        }
      ],
      "name": "getVerificationStatus",
      "outputs": [
        {
          "internalType": "enum KYCVerification.VerificationStatus",
          "name": "status",
          "type": "uint8"
        },
        {
          "internalType": "uint256",
          "name": "expiryTime",
          "type": "uint256"
        },
        {
          "internalType": "uint8",
          "name": "riskScore",
          "type": "uint8"
        },
        {
          "internalType": "string",
          "name": "amlStatus",
          "type": "string"
        }
      ],
      "stateMutability": "view",
      "type": "function"
    },
    {
      "inputs": [
        {
          "internalType": "address",
          "name": "user",
          "type": "address"
        }
      ],
      "name": "isVerifiedAndActive",
      "outputs": [
        {
          "internalType": "bool",
          "name": "",
          "type": "bool"
        }
      ],
      "stateMutability": "view",
      "type": "function"
    },
    {
      "inputs": [
        {
          "internalType": "address",
          "name": "",
          "type": "address"
        }
      ],
      "name": "kycProviders",
      "outputs": [
        {
          "internalType": "address",
          "name": "providerAddress",
          "type": "address"
        },
        {
          "internalType": "string",
          "name": "providerName",
          "type": "string"
        },
        {
          "internalType": "bool",
          "name": "isActive",
          "type": "bool"
        },
        {
          "internalType": "uint256",
          "name": "approvalCount",
          "type": "uint256"
        },
        {
          "internalType": "uint256",
          "name": "rejectionCount",
          "type": "uint256"
        }
      ],
      "stateMutability": "view",
      "type": "function"
    },
    {
      "inputs": [],
      "name": "maxAllowedRiskScore",
      "outputs": [
        {
          "internalType": "uint8",
          "name": "",
          "type": "uint8"
        }
      ],
      "stateMutability": "view",
      "type": "function"
    },
    {
      "inputs": [
        {
          "internalType": "uint256",
          "name": "",
          "type": "uint256"
        }
      ],
      "name": "providersList",
      "outputs": [
        {
          "internalType": "address",
          "name": "",
          "type": "address"
        }
      ],
      "stateMutability": "view",
      "type": "function"
    },
    {
      "inputs": [
        {
          "internalType": "string",
          "name": "",
          "type": "string"
        }
      ],
      "name": "referenceIdToUser",
      "outputs": [
        {
          "internalType": "address",
          "name": "",
          "type": "address"
        }
      ],
      "stateMutability": "view",
      "type": "function"
    },
    {
      "inputs": [
        {
          "internalType": "address",
          "name": "user",
          "type": "address"
        },
        {
          "internalType": "string",
          "name": "referenceId",
          "type": "string"
        },
        {
          "internalType": "string",
          "name": "reason",
          "type": "string"
        }
      ],
      "name": "rejectVerification",
      "outputs": [
        {
          "internalType": "bool",
          "name": "",
          "type": "bool"
        }
      ],
      "stateMutability": "nonpayable",
      "type": "function"
    },
    {
      "inputs": [
        {
          "internalType": "address",
          "name": "provider",
          "type": "address"
        }
      ],
      "name": "removeKYCProvider",
      "outputs": [],
      "stateMutability": "nonpayable",
      "type": "function"
    },
    {
      "inputs": [
        {
          "internalType": "address",
          "name": "newAdmin",
          "type": "address"
        }
      ],
      "name": "setAdmin",
      "outputs": [],
      "stateMutability": "nonpayable",
      "type": "function"
    },
    {
      "inputs": [
        {
          "internalType": "uint8",
          "name": "newMaxScore",
          "type": "uint8"
        }
      ],
      "name": "setMaxAllowedRiskScore",
      "outputs": [],
      "stateMutability": "nonpayable",
      "type": "function"
    },
    {
      "inputs": [
        {
          "internalType": "uint256",
          "name": "newPeriod",
          "type": "uint256"
        }
      ],
      "name": "setVerificationExpiryPeriod",
      "outputs": [],
      "stateMutability": "nonpayable",
      "type": "function"
    },
    {
      "inputs": [
        {
          "internalType": "address",
          "name": "user",
          "type": "address"
        },
        {
          "internalType": "string",
          "name": "referenceId",
          "type": "string"
        },
        {
          "internalType": "string",
          "name": "verificationData",
          "type": "string"
        }
      ],
      "name": "submitVerification",
      "outputs": [
        {
          "internalType": "bool",
          "name": "",
          "type": "bool"
        }
      ],
      "stateMutability": "nonpayable",
      "type": "function"
    },
    {
      "inputs": [
        {
          "internalType": "address",
          "name": "user",
          "type": "address"
        },
        {
          "internalType": "string",
          "name": "reason",
          "type": "string"
        }
      ],
      "name": "suspendVerification",
      "outputs": [
        {
          "internalType": "bool",
          "name": "",
          "type": "bool"
        }
      ],
      "stateMutability": "nonpayable",
      "type": "function"
    },
    {
      "inputs": [
        {
          "internalType": "address",
          "name": "user",
          "type": "address"
        },
        {
          "internalType": "uint8",
          "name": "newRiskScore",
          "type": "uint8"
        }
      ],
      "name": "updateRiskScore",
      "outputs": [
        {
          "internalType": "bool",
          "name": "",
          "type": "bool"
        }
      ],
      "stateMutability": "nonpayable",
      "type": "function"
    },
    {
      "inputs": [],
      "name": "verificationExpiryPeriod",
      "outputs": [
        {
          "internalType": "uint256",
          "name": "",
          "type": "uint256"
        }
      ],
      "stateMutability": "view",
      "type": "function"
    },
    {
      "inputs": [
        {
          "internalType": "address",
          "name": "",
          "type": "address"
        }
      ],
      "name": "verifications",
      "outputs": [
        {
          "internalType": "address",
          "name": "userAddress",
          "type": "address"
        },
        {
          "internalType": "string",
          "name": "bridgeReferenceId",
          "type": "string"
        },
        {
          "internalType": "enum KYCVerification.VerificationStatus",
          "name": "status",
          "type": "uint8"
        },
        {
          "internalType": "uint256",
          "name": "submissionTimestamp",
          "type": "uint256"
        },
        {
          "internalType": "uint256",
          "name": "approvalTimestamp",
          "type": "uint256"
        },
        {
          "internalType": "uint256",
          "name": "expiryTimestamp",
          "type": "uint256"
        },
        {
          "internalType": "string",
          "name": "amlStatus",
          "type": "string"
        },
        {
          "internalType": "uint8",
          "name": "riskScore",
          "type": "uint8"
        },
        {
          "internalType": "string",
          "name": "verificationData",
          "type": "string"
        },
        {
          "internalType": "bool",
          "name": "documentVerified",
          "type": "bool"
        },
        {
          "internalType": "bool",
          "name": "faceVerified",
          "type": "bool"
        },
        {
          "internalType": "string",
          "name": "rejectionReason",
          "type": "string"
        }
      ],
      "stateMutability": "view",
      "type": "function"
    }
  ],
  "bytecode": "0x608060405234801561001057600080fd5b50600480546001600160a01b0319908116339081179092556005805490911690911790556301e133806006556007805460ff191660321790556134a5806100586000396000f3fe608060405234801561001057600080fd5b50600436106101a35760003560e01c8063704b6c02116100ee578063ce606ee011610097578063dd347cb311610071578063dd347cb3146103e3578063e63ec687146103f6578063ec6910a914610416578063f851a4401461042957600080fd5b8063ce606ee01461039e578063d31e46ab146103b1578063d7429d8b146103d057600080fd5b8063862ea27b116100c8578063862ea27b146103655780639181a0db14610378578063a9b058da1461038b57600080fd5b8063704b6c021461031f57806374a238cf146103325780637583902f1461034557600080fd5b8063351fb7091161015057806350051be11161012a57806350051be11461029d57806351738559146102e95780636103681a146102fc57600080fd5b8063351fb709146102625780633bb4497c14610275578063485c273e1461028a57600080fd5b80631a0d3412116101815780631a0d341214610215578063209d725d146102385780632df8e00e1461024b57600080fd5b8063080c98da146101a85780630ae5fb50146101dc578063138fcdb7146101f1575b600080fd5b6101bb6101b6366004612b11565b61043c565b6040516101d39c9b9a99989796959493929190612bbb565b60405180910390f35b6101ef6101ea366004612b11565b6106da565b005b6102046101ff366004612b11565b6107fd565b6040516101d3959493929190612c69565b610228610223366004612cb9565b6108c4565b60405190151581526020016101d3565b6101ef610246366004612cec565b610ae5565b61025460065481565b6040519081526020016101d3565b610228610270366004612b11565b610be6565b61027d610f41565b6040516101d39190612d07565b6101ef610298366004612df7565b610fa3565b6102d16102ab366004612e45565b80516020818301810180516001825292820191909301209152546001600160a01b031681565b6040516001600160a01b0390911681526020016101d3565b6102d16102f7366004612e82565b611249565b61030f61030a366004612b11565b611273565b6040516101d39493929190612e9b565b6101ef61032d366004612b11565b6115d1565b6101ef610340366004612b11565b6116ad565b610358610353366004612b11565b6117cb565b6040516101d39190612ed4565b6101ef610373366004612b11565b6118f7565b610228610386366004612f2f565b611a13565b610228610399366004612fa3565b611c4f565b6005546102d1906001600160a01b031681565b6007546103be9060ff1681565b60405160ff90911681526020016101d3565b6102286103de366004612df7565b611feb565b6101ef6103f1366004612e82565b612279565b610409610404366004612b11565b612388565b6040516101d39190613028565b610228610424366004612f2f565b6126f9565b6004546102d1906001600160a01b031681565b600060208190529081526040902080546001820180546001600160a01b0390921692916104689061312d565b80601f01602080910402602001604051908101604052809291908181526020018280546104949061312d565b80156104e15780601f106104b6576101008083540402835291602001916104e1565b820191906000526020600020905b8154815290600101906020018083116104c457829003601f168201915b5050506002840154600385015460048601546005870154600688018054979860ff9095169793965091945092916105179061312d565b80601f01602080910402602001604051908101604052809291908181526020018280546105439061312d565b80156105905780601f1061056557610100808354040283529160200191610590565b820191906000526020600020905b81548152906001019060200180831161057357829003601f168201915b5050506007840154600885018054949560ff9092169491935091506105b49061312d565b80601f01602080910402602001604051908101604052809291908181526020018280546105e09061312d565b801561062d5780601f106106025761010080835404028352916020019161062d565b820191906000526020600020905b81548152906001019060200180831161061057829003601f168201915b505050506009830154600a84018054939460ff80841695610100909404169350916106579061312d565b80601f01602080910402602001604051908101604052809291908181526020018280546106839061312d565b80156106d05780601f106106a5576101008083540402835291602001916106d0565b820191906000526020600020905b8154815290600101906020018083116106b357829003601f168201915b505050505090508c565b6004546001600160a01b031633146107435760405162461bcd60e51b815260206004820152602160248201527f4f6e6c792061646d696e2063616e2063616c6c20746869732066756e6374696f6044820152603760f91b60648201526084015b60405180910390fd5b6001600160a01b0381166000908152600260208190526040909120015460ff166107af5760405162461bcd60e51b815260206004820152601760248201527f50726f766964657220646f6573206e6f74206578697374000000000000000000604482015260640161073a565b6001600160a01b0381166000818152600260208190526040808320909101805460ff19169055517fd0460be336159fd5a7b316308e85398a2351fd4798cfefa2a968778042359cf79190a250565b600260205260009081526040902080546001820180546001600160a01b0390921692916108299061312d565b80601f01602080910402602001604051908101604052809291908181526020018280546108559061312d565b80156108a25780601f10610877576101008083540402835291602001916108a2565b820191906000526020600020905b81548152906001019060200180831161088557829003601f168201915b5050505060028301546003840154600490940154929360ff9091169290915085565b3360009081526002602081905260408220015460ff1661093f5760405162461bcd60e51b815260206004820152603060248201527f4f6e6c7920616374697665204b59432070726f7669646572732063616e20636160448201526f3636103a3434b990333ab731ba34b7b760811b606482015260840161073a565b6001600160a01b03831661098c5760405162461bcd60e51b8152602060048201526014602482015273496e76616c69642075736572206164647265737360601b604482015260640161073a565b60016001600160a01b03841660009081526020819052604090206002015460ff1660048111156109be576109be612b83565b14610a0b5760405162461bcd60e51b815260206004820152601c60248201527f566572696669636174696f6e206973206e6f7420617070726f76656400000000604482015260640161073a565b60075460ff9081169083161115610a6f5760405162461bcd60e51b815260206004820152602260248201527f5269736b2073636f72652065786365656473206d6178696d756d20616c6c6f77604482015261195960f21b606482015260840161073a565b6001600160a01b03831660008181526020818152604091829020600701805460ff19811660ff888116918217909355845192909116808352928201529092917fba918c59ec57f63d1bae43fabfde046988346f369f83e3c5ba4a62d97dfb989c910160405180910390a260019150505b92915050565b6004546001600160a01b03163314610b495760405162461bcd60e51b815260206004820152602160248201527f4f6e6c792061646d696e2063616e2063616c6c20746869732066756e6374696f6044820152603760f91b606482015260840161073a565b60648160ff161115610b9d5760405162461bcd60e51b815260206004820152601c60248201527f5269736b2073636f72652063616e6e6f74206578636565642031303000000000604482015260640161073a565b6007805460ff191660ff83169081179091556040519081527ff4dadd679169e2cb461e021c436d8d460437063c6a6d228ee758a2001fced603906020015b60405180910390a150565b6001600160a01b03808216600090815260208181526040808320815161018081019092528054909416815260018401805493948594929390929084019190610c2d9061312d565b80601f0160208091040260200160405190810160405280929190818152602001828054610c599061312d565b8015610ca65780601f10610c7b57610100808354040283529160200191610ca6565b820191906000526020600020905b815481529060010190602001808311610c8957829003601f168201915b5050509183525050600282015460209091019060ff166004811115610ccd57610ccd612b83565b6004811115610cde57610cde612b83565b8152602001600382015481526020016004820154815260200160058201548152602001600682018054610d109061312d565b80601f0160208091040260200160405190810160405280929190818152602001828054610d3c9061312d565b8015610d895780601f10610d5e57610100808354040283529160200191610d89565b820191906000526020600020905b815481529060010190602001808311610d6c57829003601f168201915b5050509183525050600782015460ff166020820152600882018054604090920191610db39061312d565b80601f0160208091040260200160405190810160405280929190818152602001828054610ddf9061312d565b8015610e2c5780601f10610e0157610100808354040283529160200191610e2c565b820191906000526020600020905b815481529060010190602001808311610e0f57829003601f168201915b5050509183525050600982015460ff808216151560208401526101009091041615156040820152600a82018054606090920191610e689061312d565b80601f0160208091040260200160405190810160405280929190818152602001828054610e949061312d565b8015610ee15780601f10610eb657610100808354040283529160200191610ee1565b820191906000526020600020905b815481529060010190602001808311610ec457829003601f168201915b505050505081525050905060016004811115610eff57610eff612b83565b81604001516004811115610f1557610f15612b83565b14610f235750600092915050565b8060a00151421115610f385750600092915050565b50600192915050565b60606003805480602002602001604051908101604052809291908181526020018280548015610f9957602002820191906000526020600020905b81546001600160a01b03168152600190910190602001808311610f7b575b5050505050905090565b6004546001600160a01b031633146110075760405162461bcd60e51b815260206004820152602160248201527f4f6e6c792061646d696e2063616e2063616c6c20746869732066756e6374696f6044820152603760f91b606482015260840161073a565b6001600160a01b03821661105d5760405162461bcd60e51b815260206004820152601860248201527f496e76616c69642070726f766964657220616464726573730000000000000000604482015260640161073a565b60008151116110ae5760405162461bcd60e51b815260206004820152601660248201527f50726f7669646572206e616d6520726571756972656400000000000000000000604482015260640161073a565b6001600160a01b0382166000908152600260208190526040909120015460ff161561111b5760405162461bcd60e51b815260206004820152601760248201527f50726f766964657220616c726561647920657869737473000000000000000000604482015260640161073a565b6040805160a0810182526001600160a01b038481168083526020808401868152600185870181905260006060870181905260808701819052938452600290925294909120835181546001600160a01b03191693169290921782559251919290919082019061118990826131b6565b5060408281015160028301805460ff1916911515919091179055606083015160038084019190915560809093015160049092019190915581546001810183556000929092527fc2575a0e9e593c00f959f8c92f12db2869c3395a3b0502d05e2516446f71f85b90910180546001600160a01b0319166001600160a01b03851690811790915590517f8bac4cf47b2019be188879609d4d174b4933380e861b4234c9c56509d0ada69e9061123d908490613276565b60405180910390a25050565b6003818154811061125957600080fd5b6000918252602090912001546001600160a01b0316905081565b6001600160a01b0380821660009081526020818152604080832081516101808101909252805490941681526001840180549394859485946060948694909392918401916112bf9061312d565b80601f01602080910402602001604051908101604052809291908181526020018280546112eb9061312d565b80156113385780601f1061130d57610100808354040283529160200191611338565b820191906000526020600020905b81548152906001019060200180831161131b57829003601f168201915b5050509183525050600282015460209091019060ff16600481111561135f5761135f612b83565b600481111561137057611370612b83565b81526020016003820154815260200160048201548152602001600582015481526020016006820180546113a29061312d565b80601f01602080910402602001604051908101604052809291908181526020018280546113ce9061312d565b801561141b5780601f106113f05761010080835404028352916020019161141b565b820191906000526020600020905b8154815290600101906020018083116113fe57829003601f168201915b5050509183525050600782015460ff1660208201526008820180546040909201916114459061312d565b80601f01602080910402602001604051908101604052809291908181526020018280546114719061312d565b80156114be5780601f10611493576101008083540402835291602001916114be565b820191906000526020600020905b8154815290600101906020018083116114a157829003601f168201915b5050509183525050600982015460ff808216151560208401526101009091041615156040820152600a820180546060909201916114fa9061312d565b80601f01602080910402602001604051908101604052809291908181526020018280546115269061312d565b80156115735780601f1061154857610100808354040283529160200191611573565b820191906000526020600020905b81548152906001019060200180831161155657829003601f168201915b505050919092525050506040810151909150600181600481111561159957611599612b83565b1480156115a957508160a0015142115b156115b2575060035b60a082015160e083015160c09093015191989097509195509350915050565b6004546001600160a01b031633146116355760405162461bcd60e51b815260206004820152602160248201527f4f6e6c792061646d696e2063616e2063616c6c20746869732066756e6374696f6044820152603760f91b606482015260840161073a565b6001600160a01b03811661168b5760405162461bcd60e51b815260206004820152601560248201527f496e76616c69642061646d696e20616464726573730000000000000000000000604482015260640161073a565b600480546001600160a01b0319166001600160a01b0392909216919091179055565b6004546001600160a01b031633146117115760405162461bcd60e51b815260206004820152602160248201527f4f6e6c792061646d696e2063616e2063616c6c20746869732066756e6374696f6044820152603760f91b606482015260840161073a565b6001600160a01b0381166000908152600260208190526040909120015460ff1661177d5760405162461bcd60e51b815260206004820152601660248201527f50726f7669646572206973206e6f742061637469766500000000000000000000604482015260640161073a565b6001600160a01b0381166000818152600260208190526040808320909101805460ff19169055517f332b1898233a1b19f3b63e2c3e033bf8fa08231d3b25bd51d1b64469901167889190a250565b6118086040518060a0016040528060006001600160a01b031681526020016060815260200160001515815260200160008152602001600081525090565b6001600160a01b03808316600090815260026020908152604091829020825160a08101909352805490931682526001830180549293929184019161184b9061312d565b80601f01602080910402602001604051908101604052809291908181526020018280546118779061312d565b80156118c45780601f10611899576101008083540402835291602001916118c4565b820191906000526020600020905b8154815290600101906020018083116118a757829003601f168201915b5050509183525050600282015460ff16151560208201526003820154604082015260049091015460609091015292915050565b6004546001600160a01b0316331461195b5760405162461bcd60e51b815260206004820152602160248201527f4f6e6c792061646d696e2063616e2063616c6c20746869732066756e6374696f6044820152603760f91b606482015260840161073a565b6001600160a01b03818116600090815260026020526040902054166119c25760405162461bcd60e51b815260206004820152601760248201527f50726f766964657220646f6573206e6f74206578697374000000000000000000604482015260640161073a565b6001600160a01b0381166000818152600260208190526040808320909101805460ff19166001179055517fed6695e7975f4940dd5e73433266d15cf281e1f87550df9b06197138d3e13fea9190a250565b3360009081526002602081905260408220015460ff16611a8e5760405162461bcd60e51b815260206004820152603060248201527f4f6e6c7920616374697665204b59432070726f7669646572732063616e20636160448201526f3636103a3434b990333ab731ba34b7b760811b606482015260840161073a565b6001600160a01b038416611adb5760405162461bcd60e51b8152602060048201526014602482015273496e76616c69642075736572206164647265737360601b604482015260640161073a565b6001600160a01b03841660009081526020819052604081206002015460ff166004811115611b0b57611b0b612b83565b14611b585760405162461bcd60e51b815260206004820152601b60248201527f566572696669636174696f6e206973206e6f742070656e64696e670000000000604482015260640161073a565b6000825111611ba95760405162461bcd60e51b815260206004820152601960248201527f52656a656374696f6e20726561736f6e20726571756972656400000000000000604482015260640161073a565b6001600160a01b03841660009081526020819052604090206002808201805460ff19169091179055600a01611bde83826131b6565b50336000908152600260205260408120600401805491611bfd8361329f565b9190505550836001600160a01b03167f39776e52bd7f6e327398e24997f75c69b2fd05def0e44bd34aba9f50a023c2808484604051611c3d9291906132b8565b60405180910390a25060019392505050565b3360009081526002602081905260408220015460ff16611cca5760405162461bcd60e51b815260206004820152603060248201527f4f6e6c7920616374697665204b59432070726f7669646572732063616e20636160448201526f3636103a3434b990333ab731ba34b7b760811b606482015260840161073a565b6001600160a01b038516611d175760405162461bcd60e51b8152602060048201526014602482015273496e76616c69642075736572206164647265737360601b604482015260640161073a565b6001600160a01b03851660009081526020819052604081206002015460ff166004811115611d4757611d47612b83565b14611d945760405162461bcd60e51b815260206004820152601b60248201527f566572696669636174696f6e206973206e6f742070656e64696e670000000000604482015260640161073a565b83604051602001611da591906132e6565b60408051601f1981840301815282825280516020918201206001600160a01b0389166000908152808352929092209192611de3926001019101613302565b6040516020818303038152906040528051906020012014611e465760405162461bcd60e51b815260206004820152601560248201527f5265666572656e6365204944206d69736d617463680000000000000000000000604482015260640161073a565b60075460ff9081169084161115611eaa5760405162461bcd60e51b815260206004820152602260248201527f5269736b2073636f72652065786365656473206d6178696d756d20616c6c6f77604482015261195960f21b606482015260840161073a565b600060065442611eba9190613378565b6001600160a01b0387166000908152602081905260409020600281018054600160ff19918216179091554260048301556005820183905560078201805490911660ff8816179055909150600601611f1184826131b6565b506001600160a01b038616600090815260208181526040808320600901805461ffff191661010117905533835260029091528120600301805491611f548361329f565b9190505550856001600160a01b03167fce9aaca5fa79a3af0f4d8f9ff8a40ef94dc1b0287031c2a46cad1ff6de90edbe868387604051611f969392919061338b565b60405180910390a2856001600160a01b03167fbe89a8e0716d4738b38ce5089929f9671c33e439c421a08e8c07e9905fa7561e84604051611fd79190613276565b60405180910390a250600195945050505050565b3360009081526002602081905260408220015460ff166120665760405162461bcd60e51b815260206004820152603060248201527f4f6e6c7920616374697665204b59432070726f7669646572732063616e20636160448201526f3636103a3434b990333ab731ba34b7b760811b606482015260840161073a565b6001600160a01b0383166120b35760405162461bcd60e51b8152602060048201526014602482015273496e76616c69642075736572206164647265737360601b604482015260640161073a565b60016001600160a01b03841660009081526020819052604090206002015460ff1660048111156120e5576120e5612b83565b146121585760405162461bcd60e51b815260206004820152602c60248201527f4f6e6c7920617070726f76656420766572696669636174696f6e732063616e2060448201527f62652073757370656e6465640000000000000000000000000000000000000000606482015260840161073a565b60008251116121a95760405162461bcd60e51b815260206004820152601a60248201527f53757370656e73696f6e20726561736f6e207265717569726564000000000000604482015260640161073a565b6001600160a01b03831660008181526020818152604080832060028101805460ff191660041790558151808301909252600a82527f535553504943494f5553000000000000000000000000000000000000000000008284015293835291905260069091019061221890826131b6565b506001600160a01b0383166000818152602081905260409081902090517fa5793398467f394e5dceafd1a4f7fa085a0c0b2d1cf276d55fa30efe31fbf9dd916122689160019091019086906133b7565b60405180910390a250600192915050565b6004546001600160a01b031633146122dd5760405162461bcd60e51b815260206004820152602160248201527f4f6e6c792061646d696e2063616e2063616c6c20746869732066756e6374696f6044820152603760f91b606482015260840161073a565b600081116123535760405162461bcd60e51b815260206004820152602760248201527f45787069727920706572696f64206d757374206265206772656174657220746860448201527f616e207a65726f00000000000000000000000000000000000000000000000000606482015260840161073a565b60068190556040518181527f1ac152f81dc5cb6f699f12983ae8df42934a20562feca6ac4506acdb6fb9175e90602001610bdb565b6123f360408051610180810182526000808252606060208301529091820190815260200160008152602001600081526020016000815260200160608152602001600060ff16815260200160608152602001600015158152602001600015158152602001606081525090565b6001600160a01b03808316600090815260208181526040918290208251610180810190935280549093168252600183018054929392918401916124359061312d565b80601f01602080910402602001604051908101604052809291908181526020018280546124619061312d565b80156124ae5780601f10612483576101008083540402835291602001916124ae565b820191906000526020600020905b81548152906001019060200180831161249157829003601f168201915b5050509183525050600282015460209091019060ff1660048111156124d5576124d5612b83565b60048111156124e6576124e6612b83565b81526020016003820154815260200160048201548152602001600582015481526020016006820180546125189061312d565b80601f01602080910402602001604051908101604052809291908181526020018280546125449061312d565b80156125915780601f1061256657610100808354040283529160200191612591565b820191906000526020600020905b81548152906001019060200180831161257457829003601f168201915b5050509183525050600782015460ff1660208201526008820180546040909201916125bb9061312d565b80601f01602080910402602001604051908101604052809291908181526020018280546125e79061312d565b80156126345780601f1061260957610100808354040283529160200191612634565b820191906000526020600020905b81548152906001019060200180831161261757829003601f168201915b5050509183525050600982015460ff808216151560208401526101009091041615156040820152600a820180546060909201916126709061312d565b80601f016020809104026020016040519081016040528092919081815260200182805461269c9061312d565b80156126e95780601f106126be576101008083540402835291602001916126e9565b820191906000526020600020905b8154815290600101906020018083116126cc57829003601f168201915b5050505050815250509050919050565b3360009081526002602081905260408220015460ff166127745760405162461bcd60e51b815260206004820152603060248201527f4f6e6c7920616374697665204b59432070726f7669646572732063616e20636160448201526f3636103a3434b990333ab731ba34b7b760811b606482015260840161073a565b6001600160a01b0384166127c15760405162461bcd60e51b8152602060048201526014602482015273496e76616c69642075736572206164647265737360601b604482015260640161073a565b60008351116128125760405162461bcd60e51b815260206004820152601560248201527f5265666572656e63652049442072657175697265640000000000000000000000604482015260640161073a565b6001600160a01b0384166000908152602081905260409020600301541580612869575060026001600160a01b03851660009081526020819052604090206002015460ff16600481111561286757612867612b83565b145b6128db5760405162461bcd60e51b815260206004820152602560248201527f5573657220616c7265616479206861732070656e64696e67207665726966696360448201527f6174696f6e000000000000000000000000000000000000000000000000000000606482015260840161073a565b60408051610180810182526001600160a01b03868116808352602080840188815260008587018190524260608701526080860181905260a0860181905286518088018852600781527f50454e44494e47000000000000000000000000000000000000000000000000008185015260c087015260e086018190526101008601899052610120860181905261014086018190528651808401885281815261016087015292835290829052939020825181546001600160a01b0319169216919091178155915190919060018201906129b090826131b6565b50604082015160028201805460ff191660018360048111156129d4576129d4612b83565b0217905550606082015160038201556080820151600482015560a0820151600582015560c08201516006820190612a0b90826131b6565b5060e082015160078201805460ff191660ff9092169190911790556101008201516008820190612a3b90826131b6565b5061012082015160098201805461014085015115156101000261ff00199315159390931661ffff1990911617919091179055610160820151600a820190612a8290826131b6565b5090505083600184604051612a9791906132e6565b90815260405190819003602001812080546001600160a01b039384166001600160a01b0319909116179055908516907fd1e388b27139dfa0121eda0f658297d301646ecbd515cdcd6cbb5f8a8b5e325090611c3d908690429061344d565b80356001600160a01b0381168114612b0c57600080fd5b919050565b600060208284031215612b2357600080fd5b612b2c82612af5565b9392505050565b60005b83811015612b4e578181015183820152602001612b36565b50506000910152565b60008151808452612b6f816020860160208601612b33565b601f01601f19169290920160200192915050565b634e487b7160e01b600052602160045260246000fd5b60058110612bb757634e487b7160e01b600052602160045260246000fd5b9052565b60006101806001600160a01b038f168352806020840152612bde8184018f612b57565b9050612bed604084018e612b99565b8b60608401528a60808401528960a084015282810360c0840152612c11818a612b57565b905060ff881660e0840152828103610100840152612c2f8188612b57565b8615156101208501529050841515610140840152828103610160840152612c568185612b57565b9f9e505050505050505050505050505050565b6001600160a01b038616815260a060208201526000612c8b60a0830187612b57565b941515604083015250606081019290925260809091015292915050565b803560ff81168114612b0c57600080fd5b60008060408385031215612ccc57600080fd5b612cd583612af5565b9150612ce360208401612ca8565b90509250929050565b600060208284031215612cfe57600080fd5b612b2c82612ca8565b6020808252825182820181905260009190848201906040850190845b81811015612d485783516001600160a01b031683529284019291840191600101612d23565b50909695505050505050565b634e487b7160e01b600052604160045260246000fd5b600082601f830112612d7b57600080fd5b813567ffffffffffffffff80821115612d9657612d96612d54565b604051601f8301601f19908116603f01168101908282118183101715612dbe57612dbe612d54565b81604052838152866020858801011115612dd757600080fd5b836020870160208301376000602085830101528094505050505092915050565b60008060408385031215612e0a57600080fd5b612e1383612af5565b9150602083013567ffffffffffffffff811115612e2f57600080fd5b612e3b85828601612d6a565b9150509250929050565b600060208284031215612e5757600080fd5b813567ffffffffffffffff811115612e6e57600080fd5b612e7a84828501612d6a565b949350505050565b600060208284031215612e9457600080fd5b5035919050565b612ea58186612b99565b83602082015260ff83166040820152608060608201526000612eca6080830184612b57565b9695505050505050565b602081526001600160a01b0382511660208201526000602083015160a06040840152612f0360c0840182612b57565b905060408401511515606084015260608401516080840152608084015160a08401528091505092915050565b600080600060608486031215612f4457600080fd5b612f4d84612af5565b9250602084013567ffffffffffffffff80821115612f6a57600080fd5b612f7687838801612d6a565b93506040860135915080821115612f8c57600080fd5b50612f9986828701612d6a565b9150509250925092565b60008060008060808587031215612fb957600080fd5b612fc285612af5565b9350602085013567ffffffffffffffff80821115612fdf57600080fd5b612feb88838901612d6a565b9450612ff960408801612ca8565b9350606087013591508082111561300f57600080fd5b5061301c87828801612d6a565b91505092959194509250565b602081526130426020820183516001600160a01b03169052565b600060208301516101808060408501526130606101a0850183612b57565b915060408501516130746060860182612b99565b5060608501516080850152608085015160a085015260a085015160c085015260c0850151601f19808685030160e08701526130af8483612b57565b935060e087015191506101006130c98188018460ff169052565b808801519250506101208187860301818801526130e68584612b57565b9450808801519250506101406130ff8188018415159052565b87015191506101606131148782018415159052565b870151868503909101838701529050612eca8382612b57565b600181811c9082168061314157607f821691505b60208210810361316157634e487b7160e01b600052602260045260246000fd5b50919050565b601f8211156131b157600081815260208120601f850160051c8101602086101561318e5750805b601f850160051c820191505b818110156131ad5782815560010161319a565b5050505b505050565b815167ffffffffffffffff8111156131d0576131d0612d54565b6131e4816131de845461312d565b84613167565b602080601f83116001811461321957600084156132015750858301515b600019600386901b1c1916600185901b1785556131ad565b600085815260208120601f198616915b8281101561324857888601518255948401946001909101908401613229565b50858210156132665787850151600019600388901b60f8161c191681555b5050505050600190811b01905550565b602081526000612b2c6020830184612b57565b634e487b7160e01b600052601160045260246000fd5b6000600182016132b1576132b1613289565b5060010190565b6040815260006132cb6040830185612b57565b82810360208401526132dd8185612b57565b95945050505050565b600082516132f8818460208701612b33565b9190910192915050565b60008083546133108161312d565b60018281168015613328576001811461333d5761336c565b60ff198416875282151583028701945061336c565b8760005260208060002060005b858110156133635781548a82015290840190820161334a565b50505082870194505b50929695505050505050565b80820180821115610adf57610adf613289565b60608152600061339e6060830186612b57565b905083602083015260ff83166040830152949350505050565b6040815260008084546133c98161312d565b80604086015260606001808416600081146133eb576001811461340557613436565b60ff1985168884015283151560051b880183019550613436565b8960005260208060002060005b8681101561342d5781548b8201870152908401908201613412565b8a018501975050505b505050505082810360208401526132dd8185612b57565b6040815260006134606040830185612b57565b9050826020830152939250505056fea26469706673582212209ac772add4eb3b2ab910063ce56c313db2a33e79f0762055e759f3894dfc564264736f6c63430008140033",
  "linkReferences": {},
  "deployedLinkReferences": {}
}