{
  "_format": "hh-sol-artifact-1",
  "contractName": "PYUSDKYCSubscription",
  "sourceName": "contracts/PYUSDKYCSubscription.sol",
  "abi": [
    {
      "inputs": [
        {
          "internalType": "address",
          "name": "_pyusd",
          "type": "address"
        },
        {
          "internalType": "address",
          "name": "_sbt",
          "type": "address"
        },
        {
          "internalType": "uint256",
          "name": "_feeAmount",
          "type": "uint256"
        }
      ],
      "stateMutability": "nonpayable",
      "type": "constructor"
    },
    {
      "anonymous": false,
      "inputs": [
        {
          "indexed": true,
          "internalType": "address",
          "name": "depositor",
          "type": "address"
        },
        {
          "indexed": false,
          "internalType": "uint256",
          "name": "amount",
          "type": "uint256"
        }
      ],
      "name": "ETHDeposited",
      "type": "event"
    },
    {
      "anonymous": false,
      "inputs": [
        {
          "indexed": false,
          "internalType": "uint256",
          "name": "oldAmount",
          "type": "uint256"
        },
        {
          "indexed": false,
          "internalType": "uint256",
          "name": "newAmount",
          "type": "uint256"
        }
      ],
      "name": "FeeAmountUpdated",
      "type": "event"
    },
    {
      "anonymous": false,
      "inputs": [
        {
          "indexed": true,
          "internalType": "address",
          "name": "payer",
          "type": "address"
        },
        {
          "indexed": false,
          "internalType": "uint256",
          "name": "amount",
          "type": "uint256"
        },
        {
          "indexed": false,
          "internalType": "uint256",
          "name": "timestamp",
          "type": "uint256"
        }
      ],
      "name": "FeePaid",
      "type": "event"
    },
    {
      "anonymous": false,
      "inputs": [
        {
          "indexed": true,
          "internalType": "address",
          "name": "owner",
          "type": "address"
        },
        {
          "indexed": false,
          "internalType": "uint256",
          "name": "amount",
          "type": "uint256"
        }
      ],
      "name": "FeesWithdrawn",
      "type": "event"
    },
    {
      "anonymous": false,
      "inputs": [
        {
          "indexed": true,
          "internalType": "address",
          "name": "user",
          "type": "address"
        },
        {
          "indexed": false,
          "internalType": "uint256",
          "name": "ethAmount",
          "type": "uint256"
        },
        {
          "indexed": false,
          "internalType": "uint256",
          "name": "timestamp",
          "type": "uint256"
        }
      ],
      "name": "GasReimbursed",
      "type": "event"
    },
    {
      "anonymous": false,
      "inputs": [
        {
          "indexed": true,
          "internalType": "address",
          "name": "previousOwner",
          "type": "address"
        },
        {
          "indexed": true,
          "internalType": "address",
          "name": "newOwner",
          "type": "address"
        }
      ],
      "name": "OwnershipTransferred",
      "type": "event"
    },
    {
      "inputs": [
        {
          "internalType": "uint256",
          "name": "ethAmount",
          "type": "uint256"
        }
      ],
      "name": "claimEthGas",
      "outputs": [],
      "stateMutability": "nonpayable",
      "type": "function"
    },
    {
      "inputs": [],
      "name": "depositETH",
      "outputs": [],
      "stateMutability": "payable",
      "type": "function"
    },
    {
      "inputs": [],
      "name": "emergencyWithdrawETH",
      "outputs": [],
      "stateMutability": "nonpayable",
      "type": "function"
    },
    {
      "inputs": [],
      "name": "feeAmount",
      "outputs": [
        {
          "internalType": "uint256",
          "name": "",
          "type": "uint256"
        }
      ],
      "stateMutability": "view",
      "type": "function"
    },
    {
      "inputs": [],
      "name": "getStats",
      "outputs": [
        {
          "internalType": "uint256",
          "name": "_totalPaid",
          "type": "uint256"
        },
        {
          "internalType": "uint256",
          "name": "_totalReimbursed",
          "type": "uint256"
        },
        {
          "internalType": "uint256",
          "name": "_ethBalance",
          "type": "uint256"
        },
        {
          "internalType": "uint256",
          "name": "_pyusdBalance",
          "type": "uint256"
        }
      ],
      "stateMutability": "view",
      "type": "function"
    },
    {
      "inputs": [
        {
          "internalType": "address",
          "name": "user",
          "type": "address"
        }
      ],
      "name": "hasUserBeenReimbursed",
      "outputs": [
        {
          "internalType": "bool",
          "name": "",
          "type": "bool"
        }
      ],
      "stateMutability": "view",
      "type": "function"
    },
    {
      "inputs": [
        {
          "internalType": "address",
          "name": "user",
          "type": "address"
        }
      ],
      "name": "hasUserPaid",
      "outputs": [
        {
          "internalType": "bool",
          "name": "",
          "type": "bool"
        }
      ],
      "stateMutability": "view",
      "type": "function"
    },
    {
      "inputs": [],
      "name": "owner",
      "outputs": [
        {
          "internalType": "address",
          "name": "",
          "type": "address"
        }
      ],
      "stateMutability": "view",
      "type": "function"
    },
    {
      "inputs": [
        {
          "internalType": "address",
          "name": "",
          "type": "address"
        }
      ],
      "name": "paid",
      "outputs": [
        {
          "internalType": "bool",
          "name": "",
          "type": "bool"
        }
      ],
      "stateMutability": "view",
      "type": "function"
    },
    {
      "inputs": [],
      "name": "paySubscription",
      "outputs": [],
      "stateMutability": "nonpayable",
      "type": "function"
    },
    {
      "inputs": [],
      "name": "pyusd",
      "outputs": [
        {
          "internalType": "contract IERC20",
          "name": "",
          "type": "address"
        }
      ],
      "stateMutability": "view",
      "type": "function"
    },
    {
      "inputs": [
        {
          "internalType": "address",
          "name": "",
          "type": "address"
        }
      ],
      "name": "reimbursed",
      "outputs": [
        {
          "internalType": "bool",
          "name": "",
          "type": "bool"
        }
      ],
      "stateMutability": "view",
      "type": "function"
    },
    {
      "inputs": [],
      "name": "sbt",
      "outputs": [
        {
          "internalType": "contract ISBT",
          "name": "",
          "type": "address"
        }
      ],
      "stateMutability": "view",
      "type": "function"
    },
    {
      "inputs": [],
      "name": "totalPaid",
      "outputs": [
        {
          "internalType": "uint256",
          "name": "",
          "type": "uint256"
        }
      ],
      "stateMutability": "view",
      "type": "function"
    },
    {
      "inputs": [],
      "name": "totalReimbursed",
      "outputs": [
        {
          "internalType": "uint256",
          "name": "",
          "type": "uint256"
        }
      ],
      "stateMutability": "view",
      "type": "function"
    },
    {
      "inputs": [
        {
          "internalType": "address",
          "name": "newOwner",
          "type": "address"
        }
      ],
      "name": "transferOwnership",
      "outputs": [],
      "stateMutability": "nonpayable",
      "type": "function"
    },
    {
      "inputs": [
        {
          "internalType": "uint256",
          "name": "_newFeeAmount",
          "type": "uint256"
        }
      ],
      "name": "updateFeeAmount",
      "outputs": [],
      "stateMutability": "nonpayable",
      "type": "function"
    },
    {
      "inputs": [],
      "name": "withdrawFees",
      "outputs": [],
      "stateMutability": "nonpayable",
      "type": "function"
    },
    {
      "stateMutability": "payable",
      "type": "receive"
    }
  ],
  "bytecode": "0x60806040523480156200001157600080fd5b50604051620012a4380380620012a483398101604081905262000034916200019b565b6001600160a01b038316620000905760405162461bcd60e51b815260206004820152601560248201527f496e76616c69642050595553442061646472657373000000000000000000000060448201526064015b60405180910390fd5b6001600160a01b038216620000e85760405162461bcd60e51b815260206004820152601360248201527f496e76616c696420534254206164647265737300000000000000000000000000604482015260640162000087565b600081116200013a5760405162461bcd60e51b815260206004820152601460248201527f466565206d75737420626520706f736974697665000000000000000000000000604482015260640162000087565b600080546001600160a01b03199081163317909155600180546001600160a01b039586169083161790556002805493909416921691909117909155600355620001dc565b80516001600160a01b03811681146200019657600080fd5b919050565b600080600060608486031215620001b157600080fd5b620001bc846200017e565b9250620001cc602085016200017e565b9150604084015190509250925092565b6110b880620001ec6000396000f3fe60806040526004361061012d5760003560e01c80639ea55bb0116100a5578063c59d484711610074578063e7b0f66611610059578063e7b0f666146103bd578063f2fde38b146103d3578063f6326fb3146103f357600080fd5b8063c59d484714610358578063d57059241461038d57600080fd5b80639ea55bb0146102af578063a340cf79146102cf578063a44009ab146102ff578063b1324f7b1461033857600080fd5b806369e15404116100fc5780638da5cb5b116100e15780638da5cb5b1461025a5780639230fe921461027a57806397e18d6e1461029a57600080fd5b806369e154041461022f578063845360171461024557600080fd5b806322e669d31461016e57806323f7b39e146101ab578063476343ee146101f457806364910cc81461020b57600080fd5b366101695760405134815233907f6c703791f399558807424f489ccd811c72b4ff0b74af547264fad7c646776df09060200160405180910390a2005b600080fd5b34801561017a57600080fd5b5060015461018e906001600160a01b031681565b6040516001600160a01b0390911681526020015b60405180910390f35b3480156101b757600080fd5b506101e46101c6366004610fbe565b6001600160a01b031660009081526004602052604090205460ff1690565b60405190151581526020016101a2565b34801561020057600080fd5b506102096103fb565b005b34801561021757600080fd5b5061022160075481565b6040519081526020016101a2565b34801561023b57600080fd5b5061022160035481565b34801561025157600080fd5b5061020961062d565b34801561026657600080fd5b5060005461018e906001600160a01b031681565b34801561028657600080fd5b50610209610295366004610fee565b610702565b3480156102a657600080fd5b506102096109b1565b3480156102bb57600080fd5b506102096102ca366004610fee565b610c24565b3480156102db57600080fd5b506101e46102ea366004610fbe565b60046020526000908152604090205460ff1681565b34801561030b57600080fd5b506101e461031a366004610fbe565b6001600160a01b031660009081526005602052604090205460ff1690565b34801561034457600080fd5b5060025461018e906001600160a01b031681565b34801561036457600080fd5b5061036d610d03565b6040805194855260208501939093529183015260608201526080016101a2565b34801561039957600080fd5b506101e46103a8366004610fbe565b60056020526000908152604090205460ff1681565b3480156103c957600080fd5b5061022160065481565b3480156103df57600080fd5b506102096103ee366004610fbe565b610d8c565b610209610ef2565b6000546001600160a01b0316331461044a5760405162461bcd60e51b815260206004820152600d60248201526c2737ba103a34329037bbb732b960991b60448201526064015b60405180910390fd5b6001546040516370a0823160e01b81523060048201526000916001600160a01b0316906370a0823190602401602060405180830381865afa158015610493573d6000803e3d6000fd5b505050506040513d601f19601f820116820180604052508101906104b79190611007565b9050600081116105095760405162461bcd60e51b815260206004820152601360248201527f4e6f206665657320746f207769746864726177000000000000000000000000006044820152606401610441565b6001546000546040517fa9059cbb0000000000000000000000000000000000000000000000000000000081526001600160a01b0391821660048201526024810184905291169063a9059cbb906044016020604051808303816000875af1158015610577573d6000803e3d6000fd5b505050506040513d601f19601f8201168201806040525081019061059b9190611020565b6105e75760405162461bcd60e51b815260206004820152601560248201527f5059555344207472616e73666572206661696c656400000000000000000000006044820152606401610441565b6000546040518281526001600160a01b03909116907fc0819c13be868895eb93e40eaceb96de976442fa1d404e5c55f14bb65a8c489a906020015b60405180910390a250565b6000546001600160a01b031633146106775760405162461bcd60e51b815260206004820152600d60248201526c2737ba103a34329037bbb732b960991b6044820152606401610441565b47806106c55760405162461bcd60e51b815260206004820152601260248201527f4e6f2045544820746f20776974686472617700000000000000000000000000006044820152606401610441565b600080546040516001600160a01b039091169183156108fc02918491818181858888f193505050501580156106fe573d6000803e3d6000fd5b5050565b6002546040516370a0823160e01b81523360048201526000916001600160a01b0316906370a0823190602401602060405180830381865afa15801561074b573d6000803e3d6000fd5b505050506040513d601f19601f8201168201806040525081019061076f9190611007565b116107bc5760405162461bcd60e51b815260206004820152601960248201527f4e6f74204b59432d766572696669656420286e6f2053425429000000000000006044820152606401610441565b3360009081526004602052604090205460ff1661081b5760405162461bcd60e51b815260206004820152601c60248201527f5059555344207061796d656e74207265717569726564206669727374000000006044820152606401610441565b8047101561086b5760405162461bcd60e51b815260206004820152601360248201527f436f6e7472616374206c6f77206f6e20455448000000000000000000000000006044820152606401610441565b3360009081526005602052604090205460ff16156108cb5760405162461bcd60e51b815260206004820152601260248201527f416c7265616479207265696d62757273656400000000000000000000000000006044820152606401610441565b6000811161091b5760405162461bcd60e51b815260206004820152601760248201527f416d6f756e74206d75737420626520706f7369746976650000000000000000006044820152606401610441565b336000908152600560205260408120805460ff1916600117905560078054839290610947908490611042565b9091555050604051339082156108fc029083906000818181858888f19350505050158015610979573d6000803e3d6000fd5b506040805182815242602082015233917fccd7a2715c5e9db5dbf3d1956eb12c6565f2ae475aae839821d6f83a290b43459101610622565b6002546040516370a0823160e01b81523360048201526000916001600160a01b0316906370a0823190602401602060405180830381865afa1580156109fa573d6000803e3d6000fd5b505050506040513d601f19601f82011682018060405250810190610a1e9190611007565b11610a6b5760405162461bcd60e51b815260206004820152601960248201527f4e6f74204b59432d766572696669656420286e6f2053425429000000000000006044820152606401610441565b3360009081526004602052604090205460ff1615610acb5760405162461bcd60e51b815260206004820152600c60248201527f416c7265616479207061696400000000000000000000000000000000000000006044820152606401610441565b6001546003546040517f23b872dd00000000000000000000000000000000000000000000000000000000815233600482015230602482015260448101919091526001600160a01b03909116906323b872dd906064016020604051808303816000875af1158015610b3f573d6000803e3d6000fd5b505050506040513d601f19601f82011682018060405250810190610b639190611020565b610baf5760405162461bcd60e51b815260206004820152601560248201527f5059555344207472616e73666572206661696c656400000000000000000000006044820152606401610441565b336000908152600460205260408120805460ff191660011790556003546006805491929091610bdf908490611042565b90915550506003546040805191825242602083015233917ff3816d9cce3442fbfe3e4d36ad047b3362efdc9f2e283e77b0ecd768a0a01ef291015b60405180910390a2565b6000546001600160a01b03163314610c6e5760405162461bcd60e51b815260206004820152600d60248201526c2737ba103a34329037bbb732b960991b6044820152606401610441565b60008111610cbe5760405162461bcd60e51b815260206004820152601460248201527f466565206d75737420626520706f7369746976650000000000000000000000006044820152606401610441565b600380549082905560408051828152602081018490527fb6600428041f36ab218d984115a85adc1ffb17cb85a81801032cb590a8a8bc99910160405180910390a15050565b6006546007546001546040516370a0823160e01b815230600482015260009384938493849347916001600160a01b0316906370a0823190602401602060405180830381865afa158015610d5a573d6000803e3d6000fd5b505050506040513d601f19601f82011682018060405250810190610d7e9190611007565b935093509350935090919293565b6000546001600160a01b03163314610dd65760405162461bcd60e51b815260206004820152600d60248201526c2737ba103a34329037bbb732b960991b6044820152606401610441565b6001600160a01b038116610e2c5760405162461bcd60e51b815260206004820181905260248201527f4e6577206f776e65722063616e6e6f74206265207a65726f20616464726573736044820152606401610441565b6000546001600160a01b0390811690821603610e8a5760405162461bcd60e51b815260206004820152601b60248201527f4e6577206f776e6572206d75737420626520646966666572656e7400000000006044820152606401610441565b600080546001600160a01b038381167fffffffffffffffffffffffff0000000000000000000000000000000000000000831681178455604051919092169283917f8be0079c531659141344cd1fd0a4f28419497f9722a3daafe3b4186f6b6457e09190a35050565b6000546001600160a01b03163314610f3c5760405162461bcd60e51b815260206004820152600d60248201526c2737ba103a34329037bbb732b960991b6044820152606401610441565b60003411610f8c5760405162461bcd60e51b815260206004820152600d60248201527f4d7573742073656e6420455448000000000000000000000000000000000000006044820152606401610441565b60405134815233907f6c703791f399558807424f489ccd811c72b4ff0b74af547264fad7c646776df090602001610c1a565b600060208284031215610fd057600080fd5b81356001600160a01b0381168114610fe757600080fd5b9392505050565b60006020828403121561100057600080fd5b5035919050565b60006020828403121561101957600080fd5b5051919050565b60006020828403121561103257600080fd5b81518015158114610fe757600080fd5b8082018082111561107c577f4e487b7100000000000000000000000000000000000000000000000000000000600052601160045260246000fd5b9291505056fea2646970667358221220166a4640b58aaef9ede88cd7f4e87ad8034aeb6e92b9a74147063624cb67f23d64736f6c63430008140033",
  "linkReferences": {},
  "deployedLinkReferences": {}
}